:100000000C942A000C9447000C9447000C94470071
:100010000C9447000C9447000C9447000C94C01FAC
:100020000C9447000C9447000C9441060C94140661
:100030000C9447000C9447000C9447000C94470024
:100040000C94EB0D0C9447000C9447000C94470063
:100050000C94470011241FBECFE5D8E0DEBFCDBF12
:1000600010E0A0E6B0E0E8E2FDE502C005900D92E8
:10007000AE38B107D9F715E0AEE8B0E001C01D9287
:10008000AD32B107E1F70E944E2B0C94922E0C94E6
:100090000000EF92FF920F931F937B018C0120E0F1
:1000A00030E040E05FE40E94490388238CF0C801FF
:1000B000B70120E030E040E05FE40E94C1010E940F
:1000C000A9039B01AC01205030404040504806C07D
:1000D000C801B7010E94A9039B01AC01B901CA0183
:1000E0001F910F91FF90EF900895A0E0B0E0EBE733
:1000F000F0E00C943C2EDC012B01FA019C91923033
:1001000008F439C1EB018881823008F433C194309E
:1001100069F4843009F02FC111969C91119789815F
:10012000981709F428C1A3E8B0E025C1843009F488
:1001300021C18230A9F4923009F01DC19A01AD01AC
:1001400088E0EA010990AE01E90109929E0181501F
:10015000C1F7E201898111969C918923818308C1AD
:10016000923009F407C112962D903C901397EB0141
:100170008A819B811496AD90BD90CD90DC901797AD
:10018000EC80FD800E811F819101281B390BB90184
:1001900037FF04C066277727621B730B6032710537
:1001A0000CF061C0121613066CF537014801062EDB
:1001B00004C096948794779467940A94D2F721E0C8
:1001C00030E040E050E004C0220F331F441F551FB1
:1001D0006A95D2F721503040404050402E213F21B7
:1001E00040235123211531054105510521F021E01E
:1001F00030E040E050E079018A01E628F72808293C
:1002000019293CC0232BD1F1260E371E350146019A
:10021000062E04C096948794779467940A94D2F734
:1002200021E030E040E050E004C0220F331F441FC3
:10023000551F6A95D2F721503040404050402A2146
:100240003B214C215D21211531054105510521F04E
:1002500021E030E040E050E059016A01A628B728CB
:10026000C828D9280BC0821593052CF01C01AA249C
:10027000BB24650103C0EE24FF24870111969C91E5
:10028000D20111968C91981709F445C0992339F041
:10029000A80197012A193B094C095D0906C0A6016E
:1002A00095012E193F09400B510B57FD08C01182D3
:1002B0003382228224833583468357831DC081E0A5
:1002C00081833382228288279927DC01821B930B4A
:1002D000A40BB50B84839583A683B7830DC0220F2F
:1002E000331F441F551F24833583468357838281E0
:1002F000938101979383828324813581468157813D
:10030000DA01C9010197A109B1098F5F9F4FAF4F72
:10031000BF4328F30BC0918333822282EA0CFB1C7B
:100320000C1D1D1DE482F5820683178383E0808304
:10033000248135814681578157FF1AC0C901AA27F8
:1003400097FDA095BA2F81709070A070B0705695EF
:10035000479537952795822B932BA42BB52B848318
:100360009583A683B7838281938101969383828349
:10037000DF0101C0D201CD01CDB7DEB7E2E10C94BF
:10038000582EA0E2B0E0E7ECF1E00C94482E69832F
:100390007A838B839C832D833E834F835887E9E048
:1003A000EE2EF12CEC0EFD1ECE010196B7010E943F
:1003B000D2048E010F5E1F4FCE010596B8010E9438
:1003C000D2048A8991E089278A8BC701B801AE01DE
:1003D000475E5F4F0E9475000E94FD03A096E6E015
:1003E0000C94642EA0E2B0E0E8EFF1E00C94482E0B
:1003F00069837A838B839C832D833E834F835887C5
:10040000F9E0EF2EF12CEC0EFD1ECE010196B701A6
:100410000E94D2048E010F5E1F4FCE010596B801D7
:100420000E94D204C701B801AE01475E5F4F0E942F
:1004300075000E94FD03A096E6E00C94642EA0E2F5
:10044000B0E0E5E2F2E00C943C2E69837A838B8382
:100450009C832D833E834F835887CE010196BE0136
:10046000675F7F4F0E94D204CE010596BE016F5E8A
:100470007F4F0E94D2049985923088F0898982301A
:10048000C8F0943019F4823051F404C0843029F457
:10049000923081F483E890E0C6C0923049F420E0C5
:1004A0009A858A89981321E02A87CE010996BBC0D4
:1004B000823049F420E09A858A89981321E02A8BBA
:1004C000CE014196B0C02D843E844F8458886D88FB
:1004D0007E888F88988CEE24FF248701AA24BB2471
:1004E000650140E050E060E070E0E0E0F0E0C10174
:1004F00081709070892BE9F0E60CF71C081D191D1E
:100500009A01AB012A0D3B1D4C1D5D1D80E090E062
:10051000A0E0B0E0E614F7040805190520F481E036
:1005200090E0A0E0B0E0BA01A901480F591F6A1F8E
:100530007B1FAA0CBB1CCC1CDD1C97FE08C081E0F5
:1005400090E0A0E0B0E0A82AB92ACA2ADB2A3196B6
:10055000E032F10549F0660C771C881C991C569412
:10056000479437942794C3CFFA85EA892B893C892D
:100570008B859C85280F391F2E5F3F4F17C0CA01FE
:1005800081709070892B61F016950795F794E79428
:1005900080E090E0A0E0B0E8E82AF92A0A2B1B2BC3
:1005A00076956795579547952F5F3F4F77FDE7CF36
:1005B0000CC0440F551F661F771F17FD4160EE0CDE
:1005C000FF1C001F111F21503040403090E05907A0
:1005D00090E0690790E4790760F32B8F3C8FDB0193
:1005E000CA018F779070A070B07080349105A1051A
:1005F000B10561F447FD0AC0E114F10401051105DC
:1006000029F0405C5F4F6F4F7F4F40781A8EFE1786
:1006100011F081E08A8F4D8F5E8F6F8F78A383E01A
:10062000898FCE0149960E94FD03A096E2E10C94C9
:10063000582EA8E1B0E0EFE1F3E00C94482E698376
:100640007A838B839C832D833E834F83588789E0F5
:10065000E82EF12CEC0EFD1ECE010196B7010E9492
:10066000D2048E010F5E1F4FCE010596B8010E9485
:10067000D2048985823040F08989823028F0C70110
:10068000B8010E944A0501C08FEF6896E6E00C941D
:10069000642EA8E1B0E0EFE4F3E00C94482E698307
:1006A0007A838B839C832D833E834F83588789E095
:1006B000E82EF12CEC0EFD1ECE010196B7010E9432
:1006C000D2048E010F5E1F4FCE010596B8010E9425
:1006D000D2048985823040F08989823028F0C701B0
:1006E000B8010E944A0501C08FEF6896E6E00C94BD
:1006F000642EA8E1B0E0EFE7F3E00C94482E6983A4
:100700007A838B839C832D833E834F83588789E034
:10071000E82EF12CEC0EFD1ECE010196B7010E94D1
:10072000D2048E010F5E1F4FCE010596B8010E94C4
:10073000D2048985823040F08989823028F0C7014F
:10074000B8010E944A0501C081E06896E6E00C9479
:10075000642EACE0B0E0EFEAF3E00C944C2E698339
:100760007A838B839C83CE010196BE016B5F7F4FA2
:100770000E94D2048D81823061F1823050F1843048
:1007800021F48E81882351F12EC02F81388537FDC9
:1007900020C06E812F3131051CF06623F9F023C093
:1007A0008EE190E0821B930B29853A854B855C8511
:1007B00004C056954795379527958A95D2F76623B5
:1007C000B1F050954095309521953F4F4F4F5F4F79
:1007D0000EC020E030E040E050E009C02FEF3FEFD6
:1007E0004FEF5FE704C020E030E040E050E8B9019F
:1007F000CA012C96E2E00C94682EDF92EF92FF92F1
:100800000F931F93FC01E480F58006811781D1804E
:100810008081823048F480E090E0A0E1B0E0E82AF6
:10082000F92A0A2B1B2BA5C0843009F49FC0823003
:1008300021F4EE24FF24870105C0E114F104010531
:10084000110519F4E0E0F0E096C0628173819FEF3A
:10085000623879070CF05BC022E83FEF261B370BAC
:100860002A3131052CF020E030E040E050E02AC091
:10087000B801A701022E04C0769567955795479554
:100880000A94D2F781E090E0A0E0B0E004C0880FC5
:10089000991FAA1FBB1F2A95D2F70197A109B10979
:1008A0008E219F21A023B1230097A105B10521F03E
:1008B00081E090E0A0E0B0E09A01AB01282B392B59
:1008C0004A2B5B2BDA01C9018F779070A070B07052
:1008D00080349105A105B10539F427FF09C0205CDA
:1008E0003F4F4F4F5F4F04C0215C3F4F4F4F5F4F13
:1008F000E0E0F0E02030A0E03A07A0E04A07A0E402
:100900005A0710F0E1E0F0E079018A0127C0603871
:10091000710564F5FB01E158FF4FD801C7018F77DE
:100920009070A070B07080349105A105B10539F4C4
:10093000E7FE0DC080E490E0A0E0B0E004C08FE3EB
:1009400090E0A0E0B0E0E80EF91E0A1F1B1F17FFA1
:1009500005C016950795F794E794319687E01695AC
:100960000795F794E7948A95D1F705C0EE24FF2404
:100970008701EFEFF0E06E2F679566276795902F60
:100980009F77D794DD24D7948E2F8695492F462BB9
:10099000582F5D29B701CA011F910F91FF90EF9069
:1009A000DF900895FC01DB01408151812281622F9B
:1009B0006F7770E0221F2227221F9381892F880FD3
:1009C000822B282F30E0991F9927991F11969C930D
:1009D000119721153105A9F54115510561057105DD
:1009E00011F482E037C082E89FEF13969C938E93B8
:1009F00012979A01AB0167E0220F331F441F551F66
:100A00006A95D1F783E08C930DC0220F331F441FEA
:100A1000551F12968D919C911397019713969C9355
:100A20008E931297203080E0380780E0480780E4FA
:100A3000580758F314962D933D934D935C93179755
:100A400008952F3F310579F4411551056105710570
:100A500019F484E08C93089564FF03C081E08C93C3
:100A600012C01C9210C02F57304013963C932E9307
:100A7000129783E08C9387E0440F551F661F771F02
:100A80008A95D1F7706414964D935D936D937C9322
:100A9000179708951F93DC01FB019C91923008F495
:100AA00047C08081823008F443C0943051F41196DD
:100AB0001C91843099F58181682F70E0611B710968
:100AC0003FC0843021F0923031F48230B9F181811D
:100AD000882389F12DC011961C9111978230F1F075
:100AE00081811817D9F412962D913C911397828128
:100AF00093818217930794F028173907BCF0149656
:100B00008D919D910D90BC91A02D248135814681C0
:100B10005781281739074A075B0718F4112341F05A
:100B20000AC082179307A407B50740F4112319F0F0
:100B300061E070E005C06FEF7FEF02C060E070E041
:100B4000CB011F910895DF93CF93CDB7DEB7A3E517
:100B5000B0E0E3E5F0E08081887F8C93A3E5B0E02E
:100B6000E3E5F0E0808185608C93A3E5B0E0E3E508
:100B7000F0E0808180648C93A3E5B0E0E3E5F0E0F1
:100B8000808188608C93A3E5B0E0E3E5F0E08081AC
:100B900080628C93A3E5B0E0E3E5F0E080818F7E96
:100BA0008C93CF91DF910895DF93CF930F92CDB7C0
:100BB000DEB78983E2E5F0E0898180830F90CF91F1
:100BC000DF910895DF93CF930F92CDB7DEB789837E
:100BD000ECE5F0E0898180830F90CF91DF9108955B
:100BE000DF93CF9300D0CDB7DEB79A838983898115
:100BF0009A8190932805809327050F900F90CF91AD
:100C0000DF910895DF93CF9300D0CDB7DEB79A83FD
:100C1000898389819A8190932805809327050F9075
:100C20000F90CF91DF9108951F920F920FB60F9200
:100C300011242F933F934F935F936F937F938F93E1
:100C40009F93AF93BF93EF93FF93DF93CF93CDB772
:100C5000DEB7E0912705F09128050995CF91DF9146
:100C6000FF91EF91BF91AF919F918F917F916F9184
:100C70005F914F913F912F910F900FBE0F901F905A
:100C800018951F920F920FB60F9211242F933F9336
:100C90004F935F936F937F938F939F93AF93BF9384
:100CA000EF93FF93DF93CF93CDB7DEB7E0912705A6
:100CB000F09128050995CF91DF91FF91EF91BF91B8
:100CC000AF919F918F917F916F915F914F913F91E4
:100CD0002F910F900FBE0F901F901895DF93CF9319
:100CE0000F92CDB7DEB7198289818F7B8983898185
:100CF0008F7D898389818F7E89838981877F89839D
:100D0000898184608983898182608983AAE2B0E0D5
:100D1000EAE2F0E080818B7F8C938981806889830F
:100D2000E0E4F0E089818083E9E2F0E087E6808317
:100D3000AAE2B0E0EAE2F0E0808180618C93AAE26E
:100D4000B0E0EAE2F0E0808188608C930F90CF9170
:100D5000DF910895DF93CF930F92CDB7DEB78983EC
:100D6000EBE2F0E08081829586958770882F90E095
:100D7000817090700097A1F3ECE2F0E089818083AC
:100D80000F90CF91DF910895DF93CF93CDB7DEB76A
:100D9000EBE2F0E080818823DCF7ECE2F0E0808198
:100DA000CF91DF910895DF93CF9300D00F92CDB70D
:100DB000DEB79B838A8319820EC08981282F30E099
:100DC0008A819B81FC01E20FF31F80810E94AA06A9
:100DD00089818F5F89838981282F30E08A819B8177
:100DE000FC01E20FF31F8081882339F70F900F90E9
:100DF0000F90CF91DF9108950F931F93DF93CF93BF
:100E000000D00F92CDB7DEB79B838A8319820FC0C3
:100E10008981282F30E08A819B818C01020F131F6A
:100E20000E94C406F801808389818F5F898389814C
:100E3000282F30E08A819B81FC01E20FF31F808123
:100E40008A3031F70F900F900F90CF91DF911F9163
:100E50000F910895DF93CF930F92CDB7DEB78983BB
:100E6000A6E5B0E0E6E5F0E0808180648C93E0E206
:100E7000F0E08CE08083A1E2B0E0E1E2F0E080818C
:100E80008D7F8C93A1E2B0E0E1E2F0E080818E7F83
:100E90008C938981882329F0E2E2F0E08981880F30
:100EA0008083A6E5B0E0E6E5F0E0808184608C9385
:100EB0000F90CF91DF910895DF93CF930F92CDB72D
:100EC000DEB78983A6E5B0E0E6E5F0E080818064E6
:100ED0008C93E2E2F0E08981880F8083A6E5B0E0A0
:100EE000E6E5F0E0808184608C930F90CF91DF91F4
:100EF0000895DF93CF930F92CDB7DEB71982A6E5A1
:100F0000B0E0E6E5F0E0808180628C93A6E5B0E099
:100F1000E6E5F0E0808180688C93E6E5F0E0808192
:100F20008823DCF7E1E2F0E08081882F90E0887F81
:100F300090708830910511F081E0898389810F904C
:100F4000CF91DF910895DF93CF930F92CDB7DEB7A6
:100F50001982A6E5B0E0E6E5F0E0808180628C933E
:100F6000A6E5B0E0E6E5F0E0808180688C93E6E5F8
:100F7000F0E080818823DCF7E1E2F0E08081882FD7
:100F800090E0887F90708031910511F082E0898334
:100F900089810F90CF91DF910895DF93CF9300D097
:100FA000CDB7DEB78A831982E3E2F0E08A81880F49
:100FB0008083A3E2B0E0E3E2F0E080818E7F8C9357
:100FC000A6E5B0E0E6E5F0E080818F7D8C93A6E5B4
:100FD000B0E0E6E5F0E0808180688C93E6E5F0E043
:100FE00080818823DCF7E1E2F0E08081882F90E0C7
:100FF000887F90708831910511F083E08983898121
:101000000F900F90CF91DF910895DF93CF9300D091
:10101000CDB7DEB78A831982E3E2F0E08A81880FD8
:101020008083A3E2B0E0E3E2F0E0808181608C9312
:10103000A6E5B0E0E6E5F0E080818F7D8C93A6E543
:10104000B0E0E6E5F0E0808180688C93E6E5F0E0D2
:1010500080818823DCF7E1E2F0E08081882F90E056
:10106000887F90708034910511F084E089838981B4
:101070000F900F90CF91DF910895DF93CF9300D021
:10108000CDB7DEB78A831982E3E2F0E08A818083FC
:10109000A6E5B0E0E6E5F0E0808180688C93E6E5C7
:1010A000F0E080818823DCF7E1E2F0E08081882FA6
:1010B00090E0887F90708832910511F085E08983F7
:1010C00089810F900F90CF91DF910895DF93CF9397
:1010D00000D00F92CDB7DEB79B838A831982A6E535
:1010E000B0E0E6E5F0E0808180688C93E6E5F0E032
:1010F00080818823DCF7E1E2F0E08081882F90E0B6
:10110000887F90708035910519F086E0898306C04C
:10111000E3E2F0E08081EA81FB81808389810F90A6
:101120000F900F90CF91DF910895DF93CF93CDB7BC
:10113000DEB7A6E5B0E0E6E5F0E0808180618C9363
:10114000A6E5B0E0E6E5F0E0808180688C93CF9181
:10115000DF910895DF93CF93CDB7DEB7ADE2B0E076
:10116000EDE2F0E0808180628C93ADE2B0E0EDE2F0
:10117000F0E08081877F8C93ADE2B0E0EDE2F0E0BB
:10118000808184608C93AEE2B0E0EEE2F0E080819A
:101190008E7F8C93ADE2B0E0EDE2F0E080818F775E
:1011A0008C93ADE2B0E0EDE2F0E080818C7F8C9337
:1011B000ADE2B0E0EDE2F0E080818C93ADE2B0E032
:1011C000EDE2F0E0808180618C93ADE2B0E0EDE291
:1011D000F0E0808180648C93CF91DF910895DF935C
:1011E000CF93CDB7DEB7ADE2B0E0EDE2F0E08081C5
:1011F00080628C93ADE2B0E0EDE2F0E08081877F29
:101200008C93ADE2B0E0EDE2F0E0808184608C93FD
:10121000ADE2B0E0EDE2F0E080818F778C93ADE25B
:10122000B0E0EDE2F0E080818F7E8C93ADE2B0E043
:10123000EDE2F0E0808180648C93CF91DF9108959E
:10124000DF93CF930F92CDB7DEB78983EFE2F0E063
:1012500089818083EEE2F0E080818823DCF7EFE291
:10126000F0E080810F90CF91DF910895DF93CF93CD
:10127000CDB7DEB7AFE5B0E0EFE5F0E080818068A4
:101280008C93CF91DF910895DF93CF93CDB7DEB7E5
:10129000AFE5B0E0EFE5F0E080818F778C93CF9100
:1012A000DF910895DF93CF9300D000D000D0CDB769
:1012B000DEB78A836B834C8381E089838A8188309F
:1012C00008F0E8C08B81282F30E03E832D838D818C
:1012D0009E818130910509F448C02D813E812230E4
:1012E00031052CF48D819E81009771F0D1C02D8144
:1012F0003E812230310509F469C08D819E818330A1
:10130000910509F494C0C4C08C818130A1F4AAE392
:10131000B0E0EAE3F0E08081482F8A81282F30E0B6
:1013200081E090E0022E02C0880F991F0A94E2F734
:10133000842B8C93B0C08C818823A9F4AAE3B0E0FD
:10134000EAE3F0E08081482F8A81282F30E081E0B5
:1013500090E0022E02C0880F991F0A94E2F7809550
:1013600084238C9398C0198296C08C818130A1F41B
:10137000A7E3B0E0E7E3F0E08081482F8A81282FDF
:1013800030E081E090E0022E02C0880F991F0A949D
:10139000E2F7842B8C937FC08C818823A9F4A7E388
:1013A000B0E0E7E3F0E08081482F8A81282F30E029
:1013B00081E090E0022E02C0880F991F0A94E2F7A4
:1013C000809584238C9367C0198265C08C8181309D
:1013D000A1F4A4E3B0E0E4E3F0E08081482F8A8147
:1013E000282F30E081E090E0022E02C0880F991F84
:1013F0000A94E2F7842B8C934EC08C818823A9F445
:10140000A4E3B0E0E4E3F0E08081482F8A81282F54
:1014100030E081E090E0022E02C0880F991F0A940C
:10142000E2F7809584238C9336C0198234C08C8176
:101430008130A1F4A1E3B0E0E1E3F0E08081482F46
:101440008A81282F30E081E090E0022E02C0880FD0
:10145000991F0A94E2F7842B8C931DC08C818823FA
:10146000A9F4A1E3B0E0E1E3F0E08081482F8A81B4
:10147000282F30E081E090E0022E02C0880F991FF3
:101480000A94E2F7809584238C9305C0198203C0E7
:10149000198201C01982898126960FB6F894DEBFA1
:1014A0000FBECDBFCF91DF910895DF93CF9300D0D2
:1014B00000D00F92CDB7DEB78A836B8381E089833A
:1014C0008B818F3F19F08B818823A9F58A81282F82
:1014D00030E03D832C838C819D8181309105D1F05A
:1014E0002C813D81223031052CF48C819D81009727
:1014F00061F01FC02C813D812230310581F08C814B
:101500009D818330910581F014C0EAE3F0E08B8186
:10151000808312C0E7E3F0E08B8180830DC0E4E3B9
:10152000F0E08B81808308C0E1E3F0E08B81808371
:1015300003C0198201C0198289810F900F900F900A
:101540000F900F90CF91DF910895DF93CF9300D04C
:1015500000D000D0CDB7DEB78A836B834C8381E0A7
:1015600089838A81883008F0E8C08B81282F30E099
:101570003E832D838D819E818130910509F448C081
:101580002D813E81223031052CF48D819E81009782
:1015900071F0D1C02D813E812230310509F469C03E
:1015A0008D819E818330910509F494C0C4C08C81E3
:1015B0008130A1F4ABE3B0E0EBE3F0E08081482FB1
:1015C0008A81282F30E081E090E0022E02C0880F4F
:1015D000991F0A94E2F7842B8C93B0C08C818823E6
:1015E000A9F4ABE3B0E0EBE3F0E08081482F8A811F
:1015F000282F30E081E090E0022E02C0880F991F72
:101600000A94E2F7809584238C9398C0198296C03F
:101610008C818130A1F4A8E3B0E0E8E3F0E08081C0
:10162000482F8A81282F30E081E090E0022E02C00E
:10163000880F991F0A94E2F7842B8C937FC08C81CA
:101640008823A9F4A8E3B0E0E8E3F0E08081482F24
:101650008A81282F30E081E090E0022E02C0880FBE
:10166000991F0A94E2F7809584238C9367C01982AE
:1016700065C08C818130A1F4A5E3B0E0E5E3F0E042
:101680008081482F8A81282F30E081E090E0022E6F
:1016900002C0880F991F0A94E2F7842B8C934EC0E6
:1016A0008C818823A9F4A5E3B0E0E5E3F0E0808134
:1016B000482F8A81282F30E081E090E0022E02C07E
:1016C000880F991F0A94E2F7809584238C9336C083
:1016D000198234C08C818130A1F4A2E3B0E0E2E34E
:1016E000F0E08081482F8A81282F30E081E090E06F
:1016F000022E02C0880F991F0A94E2F7842B8C9364
:101700001DC08C818823A9F4A2E3B0E0E2E3F0E0FD
:101710008081482F8A81282F30E081E090E0022EDE
:1017200002C0880F991F0A94E2F7809584238C9356
:1017300005C0198203C0198201C0198289812696C9
:101740000FB6F894DEBF0FBECDBFCF91DF910895E5
:10175000DF93CF9300D000D00F92CDB7DEB78A834E
:101760006B8381E089838A81282F30E03D832C833D
:101770008C819D8181309105D1F02C813D81223079
:1017800031052CF48C819D81009761F01FC02C8164
:101790003D812230310581F08C819D81833091051E
:1017A00081F014C0EBE3F0E08B81808310C0E8E3AC
:1017B000F0E08B8180830BC0E5E3F0E08B818083D8
:1017C00006C0E2E3F0E08B81808301C01982898149
:1017D0000F900F900F900F900F90CF91DF91089581
:1017E000DF93CF93CDB7DEB727970FB6F894DEBF60
:1017F0000FBECDBF8A836B835D834C8381E0898379
:101800008A81883008F079C08C819D818130910572
:1018100009F473C08B81282F30E03F832E834E81E3
:101820005F814130510559F18E819F818230910550
:1018300034F42E813F812115310569F05CC04E8161
:101840005F814230510579F18E819F81833091050E
:1018500009F43DC050C0E9E3F0E08081282F30E07A
:101860008A81882F90E0A90102C0559547958A95F5
:10187000E2F7CA018170EC81FD8180833FC0E6E31D
:10188000F0E08081282F30E08A81882F90E0A90144
:1018900002C0559547958A95E2F7CA018170EC819F
:1018A000FD8180832BC0E3E3F0E08081282F30E0CE
:1018B0008A81882F90E0A90102C0559547958A95A5
:1018C000E2F7CA018170EC81FD81808317C0E0E3FB
:1018D000F0E08081282F30E08A81882F90E0A901F4
:1018E00002C0559547958A95E2F7CA018170EC814F
:1018F000FD81808303C0198201C0198289812796E6
:101900000FB6F894DEBF0FBECDBFCF91DF91089523
:10191000DF93CF9300D000D000D0CDB7DEB78A835D
:101920006B834C8381E089838A81853008F097C07E
:101930008B81282F30E03E832D838D819E818130E5
:101940009105A1F12D813E81223031052CF48D814C
:101950009E81009771F081C02D813E81223031053A
:1019600009F441C08D819E818330910509F458C0EE
:1019700074C0ABE3B0E0EBE3F0E08081482F8A81F4
:10198000282F30E08FE090E0022E02C0880F991FD0
:101990000A94E2F7809584238C93ABE3B0E0EBE309
:1019A000F0E090818C81892B8C935AC0A8E3B0E041
:1019B000E8E3F0E08081482F8A81282F30E08FE033
:1019C00090E0022E02C0880F991F0A94E2F78095DA
:1019D00084238C93A8E3B0E0E8E3F0E090818C816D
:1019E000892B8C933DC0A5E3B0E0E5E3F0E0808176
:1019F000482F8A81282F30E08FE090E0022E02C02D
:101A0000880F991F0A94E2F7809584238C93A5E3AD
:101A1000B0E0E5E3F0E090818C81892B8C9320C0CD
:101A2000A2E3B0E0E2E3F0E08081482F8A81282F32
:101A300030E08FE090E0022E02C0880F991F0A94D8
:101A4000E2F7809584238C93A2E3B0E0E2E3F0E038
:101A500090818C81892B8C9303C0198201C01982DB
:101A6000898126960FB6F894DEBF0FBECDBFCF9109
:101A7000DF910895DF93CF93CDB7DEB7A7E2B0E053
:101A8000E7E2F0E0808180648C93A7E2B0E0E7E2D7
:101A9000F0E080818F778C93A6E2B0E0E6E2F0E0A0
:101AA0008081887F8C93A6E2B0E0E6E2F0E080815E
:101AB00087608C93A7E2B0E0E7E2F0E080818F7D61
:101AC0008C93A6E2B0E0E6E2F0E0808180688C933F
:101AD000CF91DF910895DF93CF93CDB7DEB7A6E224
:101AE000B0E0E6E2F0E0808188608C93CF91DF91F6
:101AF0000895DF93CF930F92CDB7DEB789838981A5
:101B000087708983A7E2B0E0E7E2F0E08081807E21
:101B10008C93A7E2B0E0E7E2F0E090818981892B25
:101B20008C93A6E2B0E0E6E2F0E0808180648C93E2
:101B3000E6E2F0E0808182958F70882F90E08170DE
:101B400090700097A9F3E4E2F0E0808191810F901A
:101B5000CF91DF910895DF93CF930F92CDB7DEB78A
:101B60008983898187708983A7E2B0E0E7E2F0E0AA
:101B70008081807E8C93A7E2B0E0E7E2F0E0908184
:101B80008981892B8C93A6E2B0E0E6E2F0E08081C7
:101B900080648C930F90CF91DF910895DF93CF9362
:101BA000CDB7DEB7E4E2F0E080819181CF91DF91A3
:101BB0000895DF93CF9300D0CDB7DEB79A838983A2
:101BC00089819A8190932A05809329050F900F901F
:101BD000CF91DF9108951F920F920FB60F921124AB
:101BE0002F933F934F935F936F937F938F939F9325
:101BF000AF93BF93EF93FF93DF93CF93CDB7DEB750
:101C0000E0912905F0912A050995CF91DF91FF9187
:101C1000EF91BF91AF919F918F917F916F915F9164
:101C20004F913F912F910F900FBE0F901F901895DD
:101C3000DF93CF9300D0CDB7DEB79A838983E98154
:101C4000FA818181E981FA819081692F41E00E94C6
:101C500052090F900F90CF91DF910895DF93CF93AA
:101C600000D0CDB7DEB79A838983E981FA8181817B
:101C7000E981FA819081692F41E00E94A50A0F90C5
:101C80000F90CF91DF910895DF93CF9300D0CDB720
:101C9000DEB79A838983E981FA818181E981FA81BA
:101CA0009081692F40E00E94A50A0F900F90CF917C
:101CB000DF910895DF93CF9300D0CDB7DEB79A833D
:101CC000898380918E00882369F4E981FA8181817A
:101CD000E981FA819081692F41E00E94A50A81E0A3
:101CE00080938E0080918E00813061F4E981FA81C9
:101CF0008181E981FA819081692F40E00E94A50AE3
:101D000010928E000F900F90CF91DF910895DF9386
:101D1000CF93CDB7DEB763970FB6F894DEBF0FBE93
:101D2000CDBF888B698B4A8B2B8B8989882F90E05C
:101D3000880F991F880F991F80658F879F858A89D3
:101D4000892B8F870E9479078F850E94CD0788890C
:101D50000E943D088B890E943D080E94950880E002
:101D600090E0A0E2B1E48B879C87AD87BE876B854E
:101D70007C858D859E8520E030E04AE755E40E9411
:101D80001F02DC01CB018F839887A987BA876F81F7
:101D9000788589859A8520E030E040E85FE30E94FD
:101DA000790388232CF481E090E09E838D833FC0EB
:101DB0006F81788589859A8520E03FEF4FE757E46A
:101DC0000E94190318164CF56B857C858D859E85C0
:101DD00020E030E040E251E40E941F02DC01CB0130
:101DE000BC01CD010E944900DC01CB019E838D83A3
:101DF0000FC080E991E09C838B838B819C8101974C
:101E0000F1F79C838B838D819E8101979E838D83C7
:101E10008D819E81009769F714C06F8178858985CF
:101E20009A850E944900DC01CB019E838D838D81C0
:101E30009E819A83898389819A810197F1F79A8398
:101E4000898363960FB6F894DEBF0FBECDBFCF91E6
:101E5000DF910895DF93CF9300D000D00F92CDB7DC
:101E6000DEB78B836C834D838C81882F90E0880F45
:101E7000991F880F991F8065898399818D81892B8E
:101E800089830E94790789810E94CD078B810E94F6
:101E90003D080E94A30789810E940508CE01029691
:101EA0000E9466080E9495088A810F900F900F90FB
:101EB0000F900F90CF91DF910895DF93CF93CDB71F
:101EC000DEB76D970FB6F894DEBF0FBECDBF8D8F16
:101ED00081E060E040E00E94A50A80E06D8D0E94F4
:101EE000A80B82E060E041E00E94A50A80E090E05B
:101EF000A0E0B0E4898F9A8FAB8FBC8F698D7A8D0B
:101F00008B8D9C8D20E030E04AEF54E40E941F024C
:101F1000DC01CB018D8B9E8BAF8BB88F6D897E8959
:101F20008F89988D20E030E040E85FE30E947903DC
:101F300088232CF481E090E09C8B8B8B3FC06D89D3
:101F40007E898F89988D20E03FEF4FE757E40E940C
:101F5000190318164CF5698D7A8D8B8D9C8D20E0B8
:101F600030E040E251E40E941F02DC01CB01BC01E1
:101F7000CD010E944900DC01CB019C8B8B8B0FC0F3
:101F800088EC90E09A8B898B89899A890197F1F77F
:101F90009A8B898B8B899C8901979C8B8B8B8B89E6
:101FA0009C89009769F714C06D897E898F89988D07
:101FB0000E944900DC01CB019C8B8B8B8B899C8917
:101FC000988B8F878F8598890197F1F7988B8F87EA
:101FD00082E060E040E00E94A50A80E090E0A0E09E
:101FE000B0E48B879C87AD87BE876B857C858D85AC
:101FF0009E8520E030E04AEF54E40E941F02DC019D
:10200000CB018F839887A987BA876F817885898567
:102010009A8520E030E040E85FE30E94790388235E
:102020002CF481E090E09E838D833FC06F817885A2
:1020300089859A8520E03FEF4FE757E40E94190316
:1020400018164CF56B857C858D859E8520E030E0EB
:1020500040E251E40E941F02DC01CB01BC01CD0132
:102060000E944900DC01CB019E838D830FC088EC68
:1020700090E09C838B838B819C810197F1F79C83FB
:102080008B838D819E8101979E838D838D819E811F
:10209000009769F714C06F81788589859A850E94B9
:1020A0004900DC01CB019E838D838D819E819A83C3
:1020B000898389819A810197F1F79A83898382E0E4
:1020C00060E041E00E94A50A6D960FB6F894DEBF6D
:1020D0000FBECDBFCF91DF910895DF93CF93CDB7E2
:1020E000DEB7E8970FB6F894DEBF0FBECDBF80E035
:1020F0006FEF0E94550A81E060E041E00E945209C2
:1021000082E060E041E00E94520980E090E0A0EFB0
:10211000B1E48DAB9EABAFABB8AF6DA97EA98FA973
:1021200098AD20E030E04AEF54E40E941F02DC0149
:10213000CB0189AB9AABABABBCAB69A97AA98BA934
:102140009CA920E030E040E85FE30E947903882307
:102150002CF481E090E098AB8FA73FC069A97AA9E1
:102160008BA99CA920E03FEF4FE757E40E94190399
:1021700018164CF56DA97EA98FA998AD20E030E026
:1021800040E251E40E941F02DC01CB01BC01CD0101
:102190000E944900DC01CB0198AB8FA70FC088ECEF
:1021A00090E09EA78DA78DA59EA50197F1F79EA70C
:1021B0008DA78FA598A9019798AB8FA78FA598A9F0
:1021C000009769F714C069A97AA98BA99CA90E94F4
:1021D0004900DC01CB0198AB8FA78FA598A99CA7DC
:1021E0008BA78BA59CA50197F1F79CA78BA788E2ED
:1021F0000E945D0F80E090E0A0E8BFE38FA398A766
:10220000A9A7BAA76FA178A589A59AA520E030E073
:102210004AEF54E40E941F02DC01CB018BA39CA374
:10222000ADA3BEA36BA17CA18DA19EA120E030E057
:1022300040E85FE30E94790388232CF481E090E07A
:102240009AA389A33FC06BA17CA18DA19EA120E090
:102250003FEF4FE757E40E94190318164CF56FA1A2
:1022600078A589A59AA520E030E040E251E40E94DB
:102270001F02DC01CB01BC01CD010E944900DC0141
:10228000CB019AA389A30FC088EC90E098A38F8F0D
:102290008F8D98A10197F1F798A38F8F89A19AA1AB
:1022A00001979AA389A389A19AA1009769F714C0FD
:1022B0006BA17CA18DA19EA10E944900DC01CB01F4
:1022C0009AA389A389A19AA19E8F8D8F8D8D9E8DB2
:1022D0000197F1F79E8F8D8F8FE00E945D0F80E058
:1022E00090E0A0E8BFE3898F9A8FAB8FBC8F698D98
:1022F0007A8D8B8D9C8D20E030E04AEF54E40E9473
:102300001F02DC01CB018D8B9E8BAF8BB88F6D894B
:102310007E898F89988D20E030E040E85FE30E945D
:10232000790388232CF481E090E09C8B8B8B3FC059
:102330006D897E898F89988D20E03FEF4FE757E4C4
:102340000E94190318164CF5698D7A8D8B8D9C8D22
:1023500020E030E040E251E40E941F02DC01CB01AA
:10236000BC01CD010E944900DC01CB019C8B8B8B11
:102370000FC088EC90E09A8B898B89899A890197A4
:10238000F1F79A8B898B8B899C8901979C8B8B8B1E
:102390008B899C89009769F714C06D897E898F8924
:1023A000988D0E944900DC01CB019C8B8B8B8B8923
:1023B0009C89988B8F878F8598890197F1F7988BE7
:1023C0008F8781E00E945D0F80E090E0A0E0B0E4A4
:1023D0008B879C87AD87BE876B857C858D859E8529
:1023E00020E030E04AEF54E40E941F02DC01CB0100
:1023F0008F839887A987BA876F81788589859A8521
:1024000020E030E040E85FE30E94790388232CF469
:1024100081E090E09E838D833FC06F8178858985C0
:102420009A8520E03FEF4FE757E40E941903181602
:102430004CF56B857C858D859E8520E030E040E203
:1024400051E40E941F02DC01CB01BC01CD010E94BE
:102450004900DC01CB019E838D830FC088EC90E0A6
:102460009C838B838B819C810197F1F79C838B8369
:102470008D819E8101979E838D838D819E810097A2
:1024800069F714C06F81788589859A850E94490013
:10249000DC01CB019E838D838D819E819A8389830C
:1024A00089819A810197F1F79A83898386E00E9456
:1024B0005D0FE8960FB6F894DEBF0FBECDBFCF918B
:1024C000DF910895DF93CF93CDB7DEB76D970FB649
:1024D000F894DEBF0FBECDBF8D8F81E060E041E09C
:1024E0000E94A50A80E06D8D0E94A80B82E060E04A
:1024F00041E00E94A50A80E090E0A0E0B0E4898F6E
:102500009A8FAB8FBC8F698D7A8D8B8D9C8D20E0DF
:1025100030E04AEF54E40E941F02DC01CB018D8BB6
:102520009E8BAF8BB88F6D897E898F89988D20E0C7
:1025300030E040E85FE30E94790388232CF481E0D7
:1025400090E09C8B8B8B3FC06D897E898F89988DA5
:1025500020E03FEF4FE757E40E94190318164CF5AF
:10256000698D7A8D8B8D9C8D20E030E040E251E4C6
:102570000E941F02DC01CB01BC01CD010E94490079
:10258000DC01CB019C8B8B8B0FC088EC90E09A8B8D
:10259000898B89899A890197F1F79A8B898B8B8925
:1025A0009C8901979C8B8B8B8B899C89009769F701
:1025B00014C06D897E898F89988D0E944900DC0145
:1025C000CB019C8B8B8B8B899C89988B8F878F857C
:1025D00098890197F1F7988B8F8782E060E040E05F
:1025E0000E94A50A80E090E0A0E0B0E48B879C8781
:1025F000AD87BE876B857C858D859E8520E030E02C
:102600004AEF54E40E941F02DC01CB018F839887BC
:10261000A987BA876F81788589859A8520E030E01F
:1026200040E85FE30E94790388232CF481E090E086
:102630009E838D833FC06F81788589859A8520E050
:102640003FEF4FE757E40E94190318164CF56B85CE
:102650007C858D859E8520E030E040E251E40E943B
:102660001F02DC01CB01BC01CD010E944900DC014D
:10267000CB019E838D830FC088EC90E09C838B837D
:102680008B819C810197F1F79C838B838D819E8147
:1026900001979E838D838D819E81009769F714C079
:1026A0006F81788589859A850E944900DC01CB017C
:1026B0009E838D838D819E819A83898389819A816E
:1026C0000197F1F79A83898382E060E041E00E94FC
:1026D000A50A6D960FB6F894DEBF0FBECDBFCF91A1
:1026E000DF910895DF93CF9300D00F92CDB7DEB77F
:1026F0009B838A8319820EC08981282F30E08A81CA
:102700009B81FC01E20FF31F80810E94621289818C
:102710008F5F89838981282F30E08A819B81FC012A
:10272000E20FF31F8081882339F70F900F900F90ED
:10273000CF91DF9108950F931F93DF93CF93CDB780
:10274000DEB760970FB6F894DEBF0FBECDBF6D87C2
:102750007E878F87988B1A828D859E85AF85B889F5
:102760000097A105B10509F44FC02DC08A81082F3B
:1027700010E08D859E85AF85B8892AE030E040E085
:1027800050E0BC01CD010E941A2EDC01CB01282FA4
:10279000CE010396FC01E00FF11F20838D859E85FD
:1027A000AF85B8892AE030E040E050E0BC01CD01BF
:1027B0000E941A2EDA01C9018D879E87AF87B88BD8
:1027C0008A818F5F8A838D859E85AF85B8890097C2
:1027D000A105B10559F68A818150898311C089818B
:1027E000282F332727FD3095CE010396FC01E20FF9
:1027F000F31F8081805D0E946212898181508983EC
:102800008981882364F703C080E30E946212609686
:102810000FB6F894DEBF0FBECDBFCF91DF911F91F1
:102820000F910895DF93CF9300D0CDB7DEB78983A2
:102830006A838981813041F48A81803128F48A81D8
:1028400080580E945D0F0AC08981823039F48A81E4
:10285000803120F48A8180540E945D0F0F900F9088
:10286000CF91DF910895DF93CF93CDB7DEB7609717
:102870000FB6F894DEBF0FBECDBF888B81E060E05D
:1028800040E00E94A50A88898F70880F880F880F02
:102890008F8783E060E04F850E94880C82E060E0D3
:1028A00041E00E94A50A80E090E0A0E0B0E48B87C0
:1028B0009C87AD87BE876B857C858D859E8520E056
:1028C00030E04AEF54E40E941F02DC01CB018F8309
:1028D0009887A987BA876F81788589859A8520E04E
:1028E00030E040E85FE30E94790388232CF481E024
:1028F00090E09E838D833FC06F81788589859A851E
:1029000020E03FEF4FE757E40E94190318164CF5FB
:102910006B857C858D859E8520E030E040E251E42A
:102920000E941F02DC01CB01BC01CD010E944900C5
:10293000DC01CB019E838D830FC088EC90E09C83EB
:102940008B838B819C810197F1F79C838B838D8195
:102950009E8101979E838D838D819E81009769F76B
:1029600014C06F81788589859A850E944900DC01B1
:10297000CB019E838D838D819E819A8389838981FA
:102980009A810197F1F79A83898382E060E040E0C1
:102990000E94A50A60960FB6F894DEBF0FBECDBFA9
:1029A000CF91DF910895DF93CF93CDB7DEB7E9974D
:1029B0000FB6F894DEBF0FBECDBF86E089AF08C06A
:1029C00089AD60E041E00E94520989AD815089AF34
:1029D00089AD8330ACF781E060E041E00E945209AC
:1029E00082E060E041E00E94520980E090E0A0EFC8
:1029F000B1E48DAB9EABAFABB8AF6DA97EA98FA98B
:102A000098AD20E030E04AEF54E40E941F02DC0160
:102A1000CB0189AB9AABABABBCAB69A97AA98BA94B
:102A20009CA920E030E040E85FE30E94790388231E
:102A30002CF481E090E098AB8FA73FC069A97AA9F8
:102A40008BA99CA920E03FEF4FE757E40E941903B0
:102A500018164CF56DA97EA98FA998AD20E030E03D
:102A600040E251E40E941F02DC01CB01BC01CD0118
:102A70000E944900DC01CB0198AB8FA70FC088EC06
:102A800090E09EA78DA78DA59EA50197F1F79EA723
:102A90008DA78FA598A9019798AB8FA78FA598A907
:102AA000009769F714C069A97AA98BA99CA90E940B
:102AB0004900DC01CB0198AB8FA78FA598A99CA7F3
:102AC0008BA78BA59CA50197F1F79CA78BA782E00C
:102AD0000E94331482E00E94331488E20E9433146F
:102AE00080E090E0A0E8BFE38FA398A7A9A7BAA7CA
:102AF0006FA178A589A59AA520E030E04AEF54E4BB
:102B00000E941F02DC01CB018BA39CA3ADA3BEA33B
:102B10006BA17CA18DA19EA120E030E040E85FE3A5
:102B20000E94790388232CF481E090E09AA389A382
:102B30003FC06BA17CA18DA19EA120E03FEF4FE79C
:102B400057E40E94190318164CF56FA178A589A5C2
:102B50009AA520E030E040E251E40E941F02DC012F
:102B6000CB01BC01CD010E944900DC01CB019AA33D
:102B700089A30FC088EC90E098A38F8F8F8D98A1C8
:102B80000197F1F798A38F8F89A19AA101979AA332
:102B900089A389A19AA1009769F714C06BA17CA1B0
:102BA0008DA19EA10E944900DC01CB019AA389A3BB
:102BB00089A19AA19E8F8D8F8D8D9E8D0197F1F7A2
:102BC0009E8F8D8F80E00E9433148FE00E9433141B
:102BD00080E090E0A0E8BFE3898F9A8FAB8FBC8F35
:102BE000698D7A8D8B8D9C8D20E030E04AEF54E426
:102BF0000E941F02DC01CB018D8B9E8BAF8BB88FA7
:102C00006D897E898F89988D20E030E040E85FE310
:102C10000E94790388232CF481E090E09C8B8B8BBD
:102C20003FC06D897E898F89988D20E03FEF4FE707
:102C300057E40E94190318164CF5698D7A8D8B8D17
:102C40009C8D20E030E040E251E40E941F02DC0154
:102C5000CB01BC01CD010E944900DC01CB019C8B62
:102C60008B8B0FC088EC90E09A8B898B89899A892D
:102C70000197F1F79A8B898B8B899C8901979C8BA3
:102C80008B8B8B899C89009769F714C06D897E892D
:102C90008F89988D0E944900DC01CB019C8B8B8B26
:102CA0008B899C89988B8F878F8598890197F1F7FD
:102CB000988B8F8780E00E94331481E00E94331448
:102CC00080E090E0A0E0B0E48B879C87AD87BE8772
:102CD0006B857C858D859E8520E030E04AEF54E44D
:102CE0000E941F02DC01CB018F839887A987BA87D6
:102CF0006F81788589859A8520E030E040E85FE340
:102D00000E94790388232CF481E090E09E838D83D8
:102D10003FC06F81788589859A8520E03FEF4FE736
:102D200057E40E94190318164CF56B857C858D8538
:102D30009E8520E030E040E251E40E941F02DC0169
:102D4000CB01BC01CD010E944900DC01CB019E8377
:102D50008D830FC088EC90E09C838B838B819C815A
:102D60000197F1F79C838B838D819E8101979E83D0
:102D70008D838D819E81009769F714C06F8178855E
:102D800089859A850E944900DC01CB019E838D8351
:102D90008D819E819A83898389819A810197F1F738
:102DA0009A83898380E00E94331486E00E94331462
:102DB000E9960FB6F894DEBF0FBECDBFCF91DF917D
:102DC0000895DF93CF93CDB7DEB760970FB6F89431
:102DD000DEBF0FBECDBF888B81E060E041E00E9486
:102DE000A50A88898F70880F880F880F8F8783E0E6
:102DF00060E04F850E94880C82E060E041E00E9424
:102E0000A50A80E090E0A0E0B0E48B879C87AD87C6
:102E1000BE876B857C858D859E8520E030E04AEFFE
:102E200054E40E941F02DC01CB018F839887A9879D
:102E3000BA876F81788589859A8520E030E040E8FF
:102E40005FE30E94790388232CF481E090E09E8365
:102E50008D833FC06F81788589859A8520E03FEF1B
:102E60004FE757E40E94190318164CF56B857C85D3
:102E70008D859E8520E030E040E251E40E941F02F3
:102E8000DC01CB01BC01CD010E944900DC01CB017A
:102E90009E838D830FC088EC90E09C838B838B8115
:102EA0009C810197F1F79C838B838D819E81019793
:102EB0009E838D838D819E81009769F714C06F81F9
:102EC000788589859A850E944900DC01CB019E8323
:102ED0008D838D819E819A83898389819A810197CF
:102EE000F1F79A83898382E060E040E00E94A50ABE
:102EF00060960FB6F894DEBF0FBECDBFCF91DF91C5
:102F00000895DF93CF930F92CDB7DEB78983898180
:102F100082958F700E94E11689810E94E1160F90C0
:102F2000CF91DF910895DF93CF9300D00F92CDB76B
:102F3000DEB79B838A8319820EC08981282F30E0F7
:102F40008A819B81FC01E20FF31F80810E9481171F
:102F500089818F5F89838981282F30E08A819B81D5
:102F6000FC01E20FF31F8081882339F70F900F9047
:102F70000F90CF91DF9108950F931F93DF93CF931D
:102F8000CDB7DEB760970FB6F894DEBF0FBECDBFEA
:102F90006D877E878F87988B1A828D859E85AF85FA
:102FA000B8890097A105B10509F44FC02DC08A81E9
:102FB000082F10E08D859E85AF85B8892AE030E026
:102FC00040E050E0BC01CD010E941A2EDC01CB0193
:102FD000282FCE010396FC01E00FF11F20838D8581
:102FE0009E85AF85B8892AE030E040E050E0BC0122
:102FF000CD010E941A2EDA01C9018D879E87AF8705
:10300000B88B8A818F5F8A838D859E85AF85B889CD
:103010000097A105B10559F68A818150898311C0B5
:103020008981282F332727FD3095CE010396FC0197
:10303000E20FF31F8081805D0E948117898181509A
:1030400089838981882364F703C080E30E94621228
:1030500060960FB6F894DEBF0FBECDBFCF91DF9163
:103060001F910F910895DF93CF9300D0CDB7DEB7B6
:1030700089836A8389818130B9F48A818031A0F49F
:103080008A81882F90E080589F4F959587959595D8
:10309000879595958795959587950E9433148A8194
:1030A00080580E94331419C089818230B1F48A811A
:1030B000803198F48A81882F90E080549F4F9595B5
:1030C00087959595879595958795959587950E9470
:1030D00033148A8180540E9433140F900F90CF9143
:1030E000DF910895DF93CF93CDB7DEB727970FB663
:1030F000F894DEBF0FBECDBF9D838C836E834F835C
:103100008AE190E00E944A1B9A83898389819A818F
:10311000009709F46FC080918F0090919000009704
:1031200041F489819A819093900080938F000E944E
:10313000D91A8E81823010F081E08E83E981FA8184
:10314000118E108EE981FA818E81868BE981FA8158
:103150008F81878BE981FA818C819D819183808326
:1031600089819A8102960E94E01B89819A810C963E
:103170000E94E01BE981FA8189819A819187808789
:10318000E981FA8189819A81938B828B8E81282FA4
:1031900030E085E090E0821B930BE981FA8195870E
:1031A0008487E981FA81968980919100891728F4B2
:1031B000E981FA81868980939100E981FA81868983
:1031C000282F30E0C901880F991F880F991F880F99
:1031D000991F820F931FAC0148565F4F89819A81D6
:1031E0009C012E5F3F4FCA01B9010E94F01B81E094
:1031F0008B8302C08FEF8B838B8127960FB6F89459
:10320000DEBF0FBECDBFCF91DF910895DF93CF9387
:1032100000D000D000D0CDB7DEB79C838B837E83F7
:103220006D8320919200309193008B819C81820F5D
:10323000931F9A83898380918F00909190000296CA
:103240000E94A81CE0918F00F091900089819A81E2
:1032500093838283209192003091930089819A8197
:103260008217930770F48091BE009091BF00209167
:103270008F00309190002E5F3F4FB9010E943C1C9F
:103280000DC08091BC009091BD0020918F003091C5
:1032900090002E5F3F4FB9010E943C1C8D819E81A2
:1032A000009761F080918F00909190009C01245FC5
:1032B0003F4F8D819E81B9010E943C1C26960FB61E
:1032C000F894DEBF0FBECDBFCF91DF910895DF939D
:1032D000CF9300D0CDB7DEB73AC0F894E091C500E7
:1032E000F091C600868197819A83898389819A812A
:1032F0000C960E94A81C789489819A8102960E945B
:10330000A81CE981FA81968980919100891728F497
:10331000E981FA81868980939100E981FA81868921
:10332000282F30E0C901880F991F880F991F880F37
:10333000991F820F931FAC0148565F4F89819A8174
:103340009C012E5F3F4FCA01B9010E94F01B809182
:10335000C000882309F0C1CF0F900F90CF91DF916B
:103360000895DF93CF9300D000D0CDB7DEB70E9491
:1033700035272091940030919500821B930B9093F8
:1033800097008093960085C0809192009091930061
:103390000196909393008093920080919600909173
:1033A00097000197909397008093960080919200E8
:1033B00090919300009709F064C08091BC009091B7
:1033C000BD009A8389838091BE009091BF00909345
:1033D000BD008093BC0089819A819093BF00809347
:1033E000BE004FC0E091BC00F091BD000580F681A9
:1033F000E02D868197819C838B83EB81FC812281E8
:10340000338180919200909193008217930708F482
:1034100040C0F8948B819C8102960E94A81CEB818D
:10342000FC8184899589009729F08B819C810C9679
:103430000E94A81C7894EB81FC8196898091910070
:10344000891728F4EB81FC81868980939100EB81B8
:10345000FC818689282F30E0C901880F991F880FC9
:10346000991F880F991F820F931FAC0148565F4F19
:103470008B819C819C012E5F3F4FCA01B9010E9444
:10348000F01BE091BC00F091BD008081882309F021
:10349000A9CF8091960090919700009709F074CF82
:1034A0008091920090919300909395008093940066
:1034B0000F900F900F900F90CF91DF910895DF93B1
:1034C000CF9300D0CDB7DEB70E9467190E94B11923
:1034D0000AC080919100882309F466C08091910010
:1034E00081508093910080919100282F30E0C90194
:1034F000880F991F880F991F880F991F820F931F9C
:10350000FC01E856FF4F8081882319F380919100D8
:10351000282F30E0C901880F991F880F991F880F45
:10352000991F820F931F88569F4F9A838983E98141
:10353000FA810180F281E02D82819381E981FA8113
:1035400092838183E981FA812181328189819A8103
:1035500003962817390759F4E981FA810180F2812D
:10356000E02D82819381E981FA8192838183E981CF
:10357000FA810180F281E02D8681978190939000FD
:1035800080938F00E0918F00F091900040815181F5
:1035900080918F0090919000E0918F00F0919000C9
:1035A0002789622FFA0109950F900F90CF91DF9133
:1035B0000895DF93CF930F92CDB7DEB7198213C072
:1035C0008981282F30E0C901880F991F880F991F22
:1035D000880F991F820F931F88569F4F0E94B61B1A
:1035E00089818F5F89838981823050F38AEA90E0F4
:1035F0000E94B61B83EB90E00E94B61B80EC90E02B
:103600000E94B61B8AEA90E09093BD008093BC00B4
:1036100083EB90E09093BF008093BE000F90CF911A
:10362000DF910895DF93CF9300D000D00F92CDB7F4
:10363000DEB79D838C83EC81FD810580F681E02DD2
:10364000868197819B838A838A819B810C960E94C5
:10365000A81C8A819B819C01245F3F4F80EC90E0F5
:10366000B9010E94F01BEA81FB819689E0918F00ED
:10367000F09190008689981718F081E0898301C045
:10368000198289810F900F900F900F900F90CF911A
:10369000DF910895DF93CF9300D000D0CDB7DEB790
:1036A0009C838B831A8219820E949F268091C90075
:1036B0009091CA002B813C81820F931F23E0883EAA
:1036C000920718F52091C9003091CA008B819C8126
:1036D000280F391F8091C9009091CA008217930763
:1036E000A0F48091C9009091CA0085539F4F9A839E
:1036F00089832091C9003091CA008B819C81820FFF
:10370000931F9093CA008093C9000E94AB268981C1
:103710009A810F900F900F900F90CF91DF910895A5
:10372000DF93CF9300D0CDB7DEB79A8389830F9014
:103730000F90CF91DF910895DF93CF93CDB7DEB790
:103740001092CA001092C900CF91DF910895DF93C3
:10375000CF93CDB7DEB72091C9003091CA0088EE73
:1037600093E0821B930BCF91DF910895DF93CF936A
:1037700000D0CDB7DEB79A83898389819A81039679
:10378000E981FA8192838183E981FA818FEF9FEF4A
:103790009483838389819A810396E981FA81968350
:1037A000858389819A810396E981FA81908787834D
:1037B000E981FA8110820F900F90CF91DF910895E7
:1037C000DF93CF9300D0CDB7DEB79A838983E981A9
:1037D000FA81118610860F900F90CF91DF91089596
:1037E000DF93CF9300D000D000D0CDB7DEB79C835D
:1037F0008B837E836D83EB81FC81818192819A83AF
:103800008983E981FA8182819381ED81FE819383AD
:103810008283EB81FC8181819281ED81FE819583A0
:103820008483E981FA810280F381E02D8D819E817C
:10383000958384838D819E81E981FA81938382833C
:103840008D819E81EB81FC8192838183ED81FE815C
:103850008B819C8191878087EB81FC8180818F5F48
:10386000EB81FC81808326960FB6F894DEBF0FBEF5
:10387000CDBFCF91DF910895DF93CF93CDB7DEB762
:1038800028970FB6F894DEBF0FBECDBF9E838D8301
:1038900078876F83EF81F885808191819A8389830E
:1038A00089819A812FEF8F3F920739F4ED81FE8154
:1038B000878190859C838B8318C08D819E81039620
:1038C0009C838B8306C0EB81FC81828193819C83E6
:1038D0008B83EB81FC810280F381E02D208131819B
:1038E00089819A818217930770F7EB81FC8182812D
:1038F0009381EF81F88593838283EF81F88502803D
:10390000F381E02D8F81988595838483EF81F885FD
:103910008B819C81958384838F819885EB81FC8149
:1039200093838283EF81F8858D819E819187808743
:10393000ED81FE8180818F5FED81FE8180832896FD
:103940000FB6F894DEBF0FBECDBFCF91DF910895C3
:10395000DF93CF9300D000D0CDB7DEB79C838B83AD
:10396000EB81FC81A281B381EB81FC818481958113
:1039700015969C938E931497EB81FC81A481B5815D
:10398000EB81FC818281938113969C938E93129795
:10399000EB81FC81808591859A838983E981FA8115
:1039A000218132818B819C812817390741F4EB8179
:1039B000FC8184819581E981FA8192838183EB8105
:1039C000FC8111861086E981FA8180818150E9812C
:1039D000FA8180830F900F900F900F90CF91DF911D
:1039E0000895DF93CF93CDB7DEB728970FB6F8943D
:1039F000DEBF0FBECDBF9C838B837E836D835887D4
:103A00004F83EB81FC8181E180838B819C810197D5
:103A10009C838B83EB81FC8182E280838B819C8100
:103A200001979C838B83EB81FC8183E380838B8173
:103A30009C8101979C838B838D819E819A8389834E
:103A40008981EB81FC8180838B819C8101979C83A0
:103A50008B8389819A81892F99279A838983898188
:103A6000EB81FC8180838B819C8101979C838B837C
:103A7000EB81FC8110828B819C8101979C838B83DD
:103A8000EB81FC8180E880838B819C8101979C8302
:103A90008B83EB81FC8110828B819C8101979C83BD
:103AA0008B83EB81FC8182E080838B819C810197F9
:103AB0009C838B83EB81FC8183E080838B819C8161
:103AC00001979C838B83EB81FC8184E080838B81D5
:103AD0009C8101979C838B83EB81FC8185E08083B3
:103AE0008B819C8101979C838B83EB81FC8186E099
:103AF00080838B819C8101979C838B83EB81FC81EC
:103B000087E080838B819C8101979C838B83EB81F1
:103B1000FC8188E080838B819C8101979C838B83CF
:103B2000EB81FC8189E080838B819C8101979C8360
:103B30008B83EB81FC8180E180838B819C81019769
:103B40009C838B83EB81FC8181E180838B819C81D1
:103B500001979C838B83EB81FC8182E180838B8145
:103B60009C8101979C838B83EB81FC8183E1808323
:103B70008B819C8101979C838B83EB81FC8184E109
:103B800080838B819C8101979C838B83EB81FC815B
:103B900085E180838B819C8101979C838B83EB8162
:103BA000FC8186E180838B819C8101979C838B8340
:103BB000EB81FC8187E180838B819C8101979C83D1
:103BC0008B83EB81FC8188E180838B819C810197D1
:103BD0009C838B83EB81FC8189E180838B819C8139
:103BE00001979C838B83EB81FC8180E280838B81B6
:103BF0009C8101979C838B83EB81FC8181E2808394
:103C00008B819C8101979C838B83EB81FC8182E279
:103C100080838B819C8101979C838B83EB81FC81CA
:103C200083E280838B819C8101979C838B838F812E
:103C300098859A8389838981EB81FC8180838B813C
:103C40009C8101979C838B8389819A81892F9927F5
:103C50009A8389838981EB81FC8180838B819C811C
:103C600001979C838B83EB81FC8186E280838B812F
:103C70009C8101979C838B83EB81FC8187E280830D
:103C80008B819C8101979C838B83EB81FC8188E2F3
:103C900080838B819C8101979C838B83EB81FC814A
:103CA00089E280838B819C8101979C838B83EB814C
:103CB000FC8180E380838B819C8101979C838B8333
:103CC000EB81FC8181E380838B819C8101979C83C4
:103CD0008B838B819C8128960FB6F894DEBF0FBE34
:103CE000CDBFCF91DF910895DF93CF93CDB7DEB7EE
:103CF0000E94641FA091B304B091B404CD91CDBFD4
:103D0000DD91DEBFFF91EF91DF91CF91BF91AF9138
:103D10009F918F917F916F915F914F913F912F91E3
:103D20001F910F91FF90EF90DF90CF90BF90AF90D9
:103D30009F908F907F906F905F904F903F902F90CB
:103D40001F900F900FBE0F90089581E0CF91DF91EB
:103D50000895DF93CF93CDB7DEB7CF91DF9108956C
:103D60000F920FB6F8940F921F9211242F923F9248
:103D70004F925F926F927F928F929F92AF92BF927B
:103D8000CF92DF92EF92FF920F931F932F933F9367
:103D90004F935F936F937F938F939F93AF93BF9353
:103DA000CF93DF93EF93FF93A091B304B091B4044A
:103DB0000DB60D920EB60D920E943F28A091B3044D
:103DC000B091B404CD91CDBFDD91DEBFFF91EF91F5
:103DD000DF91CF91BF91AF919F918F917F916F9123
:103DE0005F914F913F912F911F910F91FF90EF9015
:103DF000DF90CF90BF90AF909F908F907F906F900B
:103E00005F904F903F902F901F900F900FBE0F909C
:103E100008950F920FB6F8940F921F9211242F92CB
:103E20003F924F925F926F927F928F929F92AF924A
:103E3000BF92CF92DF92EF92FF920F931F932F9337
:103E40003F934F935F936F937F938F939F93AF9322
:103E5000BF93CF93DF93EF93FF93A091B304B091FF
:103E6000B4040DB60D920EB60D920E946A270E9400
:103E70003F28A091B304B091B404CD91CDBFDD91A2
:103E8000DEBFFF91EF91DF91CF91BF91AF919F91F5
:103E90008F917F916F915F914F913F912F911F91E2
:103EA0000F91FF90EF90DF90CF90BF90AF909F90D9
:103EB0008F907F906F905F904F903F902F901F90CA
:103EC0000F900FBE0F900895DF93CF9300D000D0D6
:103ED00000D0CDB7DEB780E89EE3A0E0B0E08B83F2
:103EE0009C83AD83BE838B819C81AD81BE816894B0
:103EF00015F8B695A795979587951694D1F78B8366
:103F00009C83AD83BE838B819C81AD81BE810197F3
:103F1000A109B1098B839C83AD83BE838B81898387
:103F20008B819C81AD81BE81892F9A2FAB2FBB27BE
:103F30008B839C83AD83BE838B818A83EBE4F0E02B
:103F40008A818083EAE4F0E0898180838BE0898341
:103F5000EEE4F0E089818083E9E5F0E08081898307
:103F6000898180618983E9E5F0E0898180832696F3
:103F70000FB6F894DEBF0FBECDBFCF91DF9108958D
:103F80000E94091F1895DF93CF93CDB7DEB728970E
:103F90000FB6F894DEBF0FBECDBF8F8368871A823D
:103FA00019828F81882309F48CC08FE190E00E94F0
:103FB0004A1B9E838D838D819E81009709F481C069
:103FC0008F81282F30E08885882F90E0AC01249FD6
:103FD000C001259F900D349F900D112401969C8364
:103FE0008B838B819C810E944A1BED81FE81918392
:103FF0008083ED81FE8180819181009709F45DC00D
:10400000ED81FE81408151818F81282F30E08885AC
:10401000882F90E0BC01269FC001279F900D369FFE
:10402000900D1124840F951FED81FE81938382836F
:10403000ED81FE81128EED81FE8180819181ED8185
:10404000FE8195838483ED81FE81408151818F8142
:10405000882F90E09C01215030408885882F90E087
:10406000BC01269FC001279F900D369F900D112403
:10407000840F951FED81FE8197838683ED81FE81FC
:104080008F81838FED81FE818885848FED81FE8114
:104090008FEF858FED81FE818FEF868F8D819E81E1
:1040A00008960E94B61B8D819E8141960E94B61B88
:1040B0008D819E819A83898304C08D819E810E9417
:1040C000901B89819A8128960FB6F894DEBF0FBEA7
:1040D000CDBFCF91DF910895DF93CF9300D000D073
:1040E000CDB7DEB78B836C838B8160E00E94C31FEA
:1040F0009A83898389819A81009721F0E981FA81E5
:104100008C81828F89819A810F900F900F900F90F0
:10411000CF91DF910895DF93CF93CDB7DEB72C9782
:104120000FB6F894DEBF0FBECDBF9E838D83788718
:104130006F835A8749872B8719820FB6F8940F929D
:10414000ED81FE81928DED81FE81838D9817D8F4EB
:104150008D819E812F813885B9014B850E94C622B1
:10416000ED81FE818189882349F08D819E81419670
:104170000E94DB28813011F40E94B01E0F900FBE08
:1041800081E08C875CC089859A85009721F40F9027
:104190000FBE1C8654C08981882331F4CE0102965B
:1041A0000E94432981E089830F900FBE0E949F26C1
:1041B0000FB6F8940F92ED81FE81858D8F3F19F433
:1041C000ED81FE81158EED81FE81868D8F3F19F484
:1041D000ED81FE81168E0F900FBECE0102969E01DC
:1041E000275F3F4FB9010E945C29882309F58D8123
:1041F0009E810E942A248823A1F08D819E810896A9
:1042000029853A85B9010E94A5288D819E810E9449
:10421000A3230E94AB26882309F08FCF0E94B01EF3
:104220008CCF8D819E810E94A3230E94AB2685CFD7
:104230008D819E810E94A3230E94AB261C868C85C3
:104240002C960FB6F894DEBF0FBECDBFCF91DF9195
:104250000895DF93CF93CDB7DEB729970FB6F894C3
:10426000DEBF0FBECDBF9C838B837E836D8358875B
:104270004F8329871982EB81FC81928DEB81FC8130
:10428000838D981740F58B819C812D813E81B901EA
:1042900049850E94C622EB81FC81868D8F3F89F47F
:1042A000EB81FC818189882399F08B819C814196E7
:1042B0000E94DB28882361F0EF81F88581E080830C
:1042C00007C0EB81FC81868D8F5FEB81FC81868F3F
:1042D00081E08A8301C01A828A8129960FB6F894F8
:1042E000DEBF0FBECDBFCF91DF910895DF93CF9397
:1042F000CDB7DEB72E970FB6F894DEBF0FBECDBF99
:1043000098878F837A8769875C874B872D871B8285
:104310000FB6F8940F92EF81F885828D882309F407
:104320003FC0EF81F885868197819A8389838F8149
:10433000988529853A85B9010E945B238D8588235C
:10434000B1F4EF81F885828D8150EF81F885828FFD
:10435000EF81F88580858823F1F08F819885089614
:104360000E94DB288130B9F40E94B01E14C0EF8196
:10437000F88589819A8197838683EF81F885818981
:10438000882349F08F81988541960E94DB288823F5
:1043900011F00E94B01E0F900FBE81E08E875CC0AE
:1043A0008B859C85009721F40F900FBE1E8654C00C
:1043B0008B81882331F4CE0104960E94432981E049
:1043C0008B830F900FBE0E949F260FB6F8940F921A
:1043D000EF81F885858D8F3F19F4EF81F885158E73
:1043E000EF81F885868D8F3F19F4EF81F885168E61
:1043F0000F900FBECE0104969E01255F3F4FB9017D
:104400000E945C29882309F58F8198850E94F723F3
:104410008823A1F08F81988541962B853C85B90131
:104420000E94A5288F8198850E94A3230E94AB2615
:10443000882309F06DCF0E94B01E6ACF8F819885C6
:104440000E94A3230E94AB2663CF8F8198850E9490
:10445000A3230E94AB261E868E852E960FB6F89457
:10446000DEBF0FBECDBFCF91DF910895DF93CF9315
:10447000CDB7DEB728970FB6F894DEBF0FBECDBF1D
:104480009C838B837E836D8358874F831982EB8156
:10449000FC81828D882371F18B819C812D813E81ED
:1044A000B9010E945B23EB81FC81828D8150EB81FD
:1044B000FC81828FEB81FC81858D8F3F89F4EB81BC
:1044C000FC818085882399F08B819C8108960E94CD
:1044D000DB28882361F0EF81F88581E0808307C0C5
:1044E000EB81FC81858D8F5FEB81FC81858F81E085
:1044F0008A8301C01A828A8128960FB6F894DEBF9B
:104500000FBECDBFCF91DF910895DF93CF9300D041
:104510000F92CDB7DEB79B838A830FB6F8940F92C4
:10452000EA81FB81828D89830F900FBE89810F9074
:104530000F900F90CF91DF910895DF93CF9300D02C
:104540000F92CDB7DEB79B838A83EA81FB81828D90
:10455000898389810F900F900F90CF91DF910895FB
:10456000DF93CF9300D0CDB7DEB79A838983E981FB
:10457000FA81808191810E94901B89819A810E9499
:10458000901B0F900F90CF91DF910895DF93CF9301
:1045900000D000D00F92CDB7DEB79A8389837C8399
:1045A0006B834D83E981FA81848D882309F474C07B
:1045B0008D81882399F5E981FA8164817581E9818A
:1045C000FA81848D482F50E02B813C81CB01B901C9
:1045D0000E94732EE981FA8124813581E981FA8173
:1045E000848D882F90E0820F931FE981FA81958353
:1045F0008483E981FA8124813581E981FA8182818C
:1046000093812817390708F447C0E981FA8180812E
:104610009181E981FA81958384833EC0E981FA81A1
:1046200066817781E981FA81848D482F50E02B8162
:104630003C81CB01B9010E94732EE981FA81268168
:104640003781E981FA81848D882F90E0909581955A
:104650009F4F820F931FE981FA8197838683E981B7
:10466000FA8126813781E981FA8180819181281739
:10467000390790F4E981FA8122813381E981FA8155
:10468000848D882F90E0909581959F4F820F931F86
:10469000E981FA8197838683E981FA81828D8F5F30
:1046A000E981FA81828F0F900F900F900F900F90F9
:1046B000CF91DF910895DF93CF9300D000D0CDB795
:1046C000DEB79A8389837C836B83E981FA81808159
:1046D0009181009789F1E981FA8126813781E98109
:1046E000FA81848D882F90E0820F931FE981FA81EF
:1046F00097838683E981FA8126813781E981FA816E
:10470000828193812817390740F0E981FA818081FD
:104710009181E981FA8197838683E981FA814681D3
:104720005781E981FA81848D282F30E08B819C812B
:10473000BA01A9010E94732E0F900F900F900F9055
:10474000CF91DF910895DF93CF9300D0CDB7DEB73F
:104750009A8389830FB6F8940F9215C0E981FA8184
:1047600081898823A9F089819A8141960E94DB285A
:10477000882311F00E94B929E981FA81868D815040
:10478000E981FA81868FE981FA81868D181634F3E2
:10479000E981FA818FEF868F0F900FBE0FB6F894E4
:1047A0000F9215C0E981FA8180858823A9F089815B
:1047B0009A8108960E94DB28882311F00E94B9296B
:1047C000E981FA81858D8150E981FA81858FE981BE
:1047D000FA81858D181634F3E981FA818FEF858F80
:1047E0000F900FBE0F900F90CF91DF910895DF9340
:1047F000CF9300D00F92CDB7DEB79B838A830FB6DD
:10480000F8940F92EA81FB81828D1982882311F43A
:1048100081E089830F900FBE89810F900F900F90D8
:10482000CF91DF910895DF93CF9300D00F92CDB752
:10483000DEB79B838A83EA81FB81828D198288237C
:1048400011F481E0898389810F900F900F90CF91AF
:10485000DF910895DF93CF9300D00F92CDB7DEB7ED
:104860009B838A830FB6F8940F92EA81FB81928D25
:10487000EA81FB81838D1982981711F481E0898385
:104880000F900FBE89810F900F900F90CF91DF9105
:104890000895DF93CF9300D00F92CDB7DEB79B83FF
:1048A0008A83EA81FB81928DEA81FB81838D198263
:1048B000981711F481E0898389810F900F900F90F0
:1048C000CF91DF910895AF92BF92CF92DF92EF9296
:1048D000FF920F931F93DF93CF93CDB7DEB764970B
:1048E0000FB6F894DEBF0FBECDBF9F838E8379874E
:1048F00068875B874A873D872C870E87F88AEF8613
:10490000DA8AC98ABC8AAB8A8A859B8529893A89D1
:10491000B9010E94E82A9C838B838B819C8100973C
:1049200009F499C0EB81FC812789308D8A859B85AC
:104930000197820F931F9A8389838B819C8128859D
:104940003985EB89FC89AA85BB85B9014E859F0114
:104950008D010E94CD2989819A812E813F814C85CC
:104960005D85B9010E94F11CEB81FC8191838083FC
:104970008F859889009731F0EF85F8898B819C812C
:10498000918380830FB6F8940F928091B6048F5F65
:104990008093B6048091B3049091B404009769F4B5
:1049A0008B819C819093B4048093B3048091B6046E
:1049B0008130A9F40E94242A12C08091BB0488236C
:1049C00071F4E091B304F091B40496898E8589174F
:1049D00030F08B819C819093B4048093B304EB817D
:1049E000FC8196898091B904891728F4EB81FC81B8
:1049F00086898093B9048091C0048F5F8093C0043E
:104A0000EB81FC8196898091BA04891728F4EB81A7
:104A1000FC8186898093BA04EB81FC818689282FEA
:104A200030E0C901880F991F880F991F880F991FBF
:104A3000820F931FAC014F535B4F8B819C819C0174
:104A40002E5F3F4FCA01B9010E94F01B81E08D83A8
:104A50000F900FBE02C08FEF8D838D81813071F476
:104A60008091BB04882351F0E091B304F091B40429
:104A700096898E85981710F40E94B01E8D816496D9
:104A80000FB6F894DEBF0FBECDBFCF91DF911F915F
:104A90000F91FF90EF90DF90CF90BF90AF9008956F
:104AA000DF93CF9300D000D000D0CDB7DEB79C838A
:104AB0008B830FB6F8940F922091B3043091B40415
:104AC0008B819C818217930711F41C821B828B813E
:104AD0009C81009739F48091B3049091B4049E8333
:104AE0008D8304C08B819C819E838D838D819E816B
:104AF0009A83898389819A8102960E94A81CE98100
:104B0000FA8184899589009729F089819A810C9688
:104B10000E94A81C89819A819C012E5F3F4F8DE0E5
:104B200095E0B9010E94F01B8091B5048F5F8093DE
:104B3000B5048091C0048F5F8093C0040F900FBEB6
:104B40008091BB04882331F08B819C81009711F404
:104B50000E94B01E26960FB6F894DEBF0FBECDBFE2
:104B6000CF91DF910895DF93CF93CDB7DEB728972C
:104B70000FB6F894DEBF0FBECDBF9E838D837887BE
:104B80006F8319820E949F26ED81FE8120813181F1
:104B90008F819885820F931F9C838B83ED81FE818B
:104BA000208131818091B7049091B80482179307D6
:104BB000A8F4ED81FE81208131818B819C81821757
:104BC000930700F52091B7043091B8048B819C8144
:104BD00028173907B8F481E0898314C0ED81FE817C
:104BE000208131818B819C818217930748F020912D
:104BF000B7043091B8048B819C812817390710F4D1
:104C000081E08983ED81FE818B819C81918380830A
:104C10008981882359F08091B3049091B40402965D
:104C20000E94A81C8B819C810E949F2A0E94AB2617
:104C30008A838A81882311F40E94B01E28960FB6B9
:104C4000F894DEBF0FBECDBFCF91DF910895DF9303
:104C5000CF9300D000D00F92CDB7DEB79D838C8369
:104C600019828C819D810097D1F00E949F2620910E
:104C7000B7043091B8048C819D81820F931F9B8370
:104C80008A838091B3049091B40402960E94A81C78
:104C90008A819B810E949F2A0E94AB2689838981F9
:104CA000882311F40E94B01E0F900F900F900F9068
:104CB0000F90CF91DF910895AF92BF92CF92DF9284
:104CC000EF92FF920F93DF93CF930F92CDB7DEB7A2
:104CD00020E630E083EC99E2B90145E550E020E0C0
:104CE00030E000E0EE24FF24CC24DD24AA24BB2401
:104CF0000E94632489838981813051F4F89481E092
:104D00008093BB041092B8041092B7040E94741EE2
:104D10000F90CF91DF910F91FF90EF90DF90CF90A8
:104D2000BF90AF900895DF93CF93CDB7DEB7F894DF
:104D30001092BB040E94A91ECF91DF910895DF93CA
:104D4000CF93CDB7DEB78091BC048F5F8093BC0456
:104D5000CF91DF910895DF93CF9300D000D0CDB7EE
:104D6000DEB71A820FB6F8940F928091BC0481507E
:104D70008093BC048091BC04882309F06CC08091AE
:104D8000B604882309F467C0198241C0E09109057F
:104D9000F0910A05868197819C838B838B819C810E
:104DA0000C960E94A81C8B819C8102960E94A81CD4
:104DB000EB81FC8196898091BA04891728F4EB81F4
:104DC000FC8186898093BA04EB81FC818689282F37
:104DD00030E0C901880F991F880F991F880F991F0C
:104DE000820F931F8F539B4F2B813C812E5F3F4F30
:104DF000B9010E94F01BEB81FC819689E091B3041C
:104E0000F091B4048689981710F081E0898380912D
:104E10000405882309F0BACF8091BD04882371F07E
:104E200007C00E946A278091BD0481508093BD0411
:104E30008091BD048823A9F781E08983898181302D
:104E400021F08091BE04813031F481E08A83109298
:104E5000BE040E94B01E0F900FBE8A810F900F906B
:104E60000F900F90CF91DF910895DF93CF9300D0F3
:104E7000CDB7DEB70FB6F8940F928091B70490913A
:104E8000B8049A8389830F900FBE89819A810F900D
:104E90000F90CF91DF910895DF93CF9300D00F92C1
:104EA000CDB7DEB719828091B7049091B8049B8387
:104EB0008A838A819B810F900F900F90CF91DF9111
:104EC0000895DF93CF93CDB7DEB78091B604CF912D
:104ED000DF910895DF93CF9300D000D000D0CDB7FD
:104EE000DEB78091BC04882309F0BBC08091B70471
:104EF0009091B80401969093B8048093B704809180
:104F0000B7049091B8040097D1F580910005909175
:104F100001059C838B8380910205909103059093FA
:104F20000105809300058B819C81909303058093FC
:104F300002058091BF048F5F8093BF04E09100055C
:104F4000F09101058081882339F48FEF9FEF9093D2
:104F50008C0080938B0013C0E0910005F091010557
:104F60000580F681E02D868197819E838D83ED817A
:104F7000FE818281938190938C0080938B0020919D
:104F8000B7043091B80480918B0090918C00281761
:104F9000390708F46BC0E0910005F09101058081AC
:104FA000882339F48FEF9FEF90938C0080938B00D0
:104FB0005DC0E0910005F09101050580F681E02DCE
:104FC000868197819E838D83ED81FE81828193818D
:104FD0009A8389832091B7043091B80489819A819A
:104FE0002817390738F489819A8190938C0080932F
:104FF0008B003CC08D819E8102960E94A81CED8191
:10500000FE8184899589009729F08D819E810C9677
:105010000E94A81CED81FE8196898091BA048917AF
:1050200028F4ED81FE8186898093BA04ED81FE81AA
:105030008689282F30E0C901880F991F880F991F92
:10504000880F991F820F931FAC014F535B4F8D81C7
:105050009E819C012E5F3F4FCA01B9010E94F01B47
:105060009ACF8091BD048F5F8093BD0426960FB6C2
:10507000F894DEBF0FBECDBFCF91DF910895DF93CF
:10508000CF9300D0CDB7DEB78091BC04882349F020
:1050900081E08093BE0454C08091BA048150809313
:1050A000BA048091BA04282F30E0C901880F991FF3
:1050B000880F991F880F991F820F931FFC01EF53D0
:1050C000FB4F8081882341F38091BA04282F30E080
:1050D000C901880F991F880F991F880F991F820F88
:1050E000931F8F539B4F9A838983E981FA810180B3
:1050F000F281E02D82819381E981FA81928381831B
:10510000E981FA812181328189819A810396281768
:10511000390759F4E981FA810180F281E02D828119
:105120009381E981FA8192838183E981FA81018007
:10513000F281E02D868197819093B4048093B3042B
:105140000F900F90CF91DF910895DF93CF9300D010
:1051500000D000D0CDB7DEB79C838B837E836D8378
:105160004B815C818091B3049091B4049C01245FD5
:105170003F4FCA01B9010E943C1C8091B304909139
:10518000B40402960E94A81C2091B7043091B80480
:105190008D819E81820F931F9A83898389819A8151
:1051A0000E949F2A26960FB6F894DEBF0FBECDBF91
:1051B000CF91DF910895DF93CF9300D000D00F926D
:1051C000CDB7DEB79D838C83EC81FD810580F681B0
:1051D000E02D868197819B838A838A819B810C96AF
:1051E0000E94A81C8091BC04882361F58A819B8160
:1051F00002960E94A81CEA81FB8196898091BA04DC
:10520000891728F4EA81FB8186898093BA04EA81B0
:10521000FB818689282F30E0C901880F991F880FEC
:10522000991F880F991F820F931FAC014F535B4F3B
:105230008A819B819C012E5F3F4FCA01B9010E9468
:10524000F01B0AC08A819B819C01245F3F4F84E050
:1052500095E0B9010E94F01BEA81FB819689E091FB
:10526000B304F091B4048689981718F081E089831B
:1052700001C0198289810F900F900F900F900F90AD
:10528000CF91DF910895DF93CF9300D0CDB7DEB7F4
:105290009A8389838091BF04E981FA818083809118
:1052A000B7049091B804E981FA81928381830F90C9
:1052B0000F90CF91DF910895DF93CF9300D000D06E
:1052C0000F92CDB7DEB79B838A837D836C830FB645
:1052D000F8940F92EA81FB8190818091BF04981726
:1052E00071F0EA81FB81218132818091B704909134
:1052F000B8048217930718F081E089832FC02091AA
:10530000B7043091B804EA81FB8181819281281B26
:10531000390BEC81FD818081918128173907E0F4F8
:10532000EC81FD8140815181EA81FB8121813281C3
:105330008091B7049091B804B901681B790BCB0137
:10534000840F951FEC81FD81918380838A819B81ED
:105350000E944329198202C081E089830F900FBE09
:1053600089810F900F900F900F900F90CF91DF9148
:105370000895DF93CF93CDB7DEB781E08093BE046D
:10538000CF91DF910895DF93CF9300D0CDB7DEB7F3
:105390009A8389830E94612AFDCF0F931F93DF9325
:1053A000CF93CDB7DEB729970FB6F894DEBF0FBE07
:1053B000CDBF9A8389837C836B834D833F832E8308
:1053C0001987088789819A8149962B813C81B90187
:1053D00048E050E00E94832EE981FA8110A28D817D
:1053E000853010F084E08D83E981FA818D81868B90
:1053F00089819A8102960E94E01B89819A810C968C
:105400000E94E01BE981FA8189819A8191878087D6
:105410008D81282F30E085E090E0821B930BE9819D
:10542000FA8195878487E981FA8189819A81938BB2
:10543000828B29960FB6F894DEBF0FBECDBFCF91F9
:10544000DF911F910F910895DF93CF930F92CDB706
:10545000DEB7198213C08981282F30E0C901880F77
:10546000991F880F991F880F991F820F931F8F53C1
:105470009B4F0E94B61B89818F5F8983898185300C
:1054800050F38EEE94E00E94B61B87EF94E00E94EA
:10549000B61B84E095E00E94B61B8DE095E00E946B
:1054A000B61B8EEE94E0909301058093000587EF84
:1054B00094E090930305809302050F90CF91DF91C4
:1054C0000895DF93CF9300D00F92CDB7DEB78091D0
:1054D000B504882371F10E949F2680910D051B82DF
:1054E000882311F481E08B830E94AB268B81882373
:1054F00001F50FB6F8940F92E0911205F0911305A3
:10550000868197819A83898389819A8102960E94F4
:10551000A81C8091B60481508093B6048091B50494
:1055200081508093B5040F900FBE89819A810E94AB
:10553000382B0F900F900F90CF91DF910895DF934C
:10554000CF9300D0CDB7DEB79A838983E091B304BF
:10555000F091B40489819A81938382832091B70466
:105560003091B80489819A818217930770F48091F1
:105570000205909103052091B3043091B4042E5F8D
:105580003F4FB9010E943C1C1EC040910005509144
:1055900001058091B3049091B4049C012E5F3F4FAC
:1055A000CA01B9010E943C1C20918B0030918C00F3
:1055B00089819A818217930730F489819A81909327
:1055C0008C0080938B000F900F90CF91DF91089506
:1055D000DF93CF93CDB7DEB728970FB6F894DEBF31
:1055E0000FBECDBF9C838B837E836D8381E290E071
:1055F0000E944A1B9A83898389819A81009769F165
:105600008D819E81009739F48B819C810E944A1B79
:1056100098878F8304C08D819E8198878F83E981CD
:10562000FA818F819885908F878BE981FA818789AC
:10563000908D009739F489819A810E94901B1A827B
:1056400019820BC0E981FA818789908D2B813C8179
:1056500065EA70E0A9010E947C2E89819A812896D2
:105660000FB6F894DEBF0FBECDBFCF91DF91089586
:10567000DF93CF9300D0CDB7DEB79A838983E981DA
:10568000FA818789908D0E94901B89819A810E945E
:10569000901B0F900F90CF91DF910895AF92BF9222
:1056A000CF92DF92EF92FF920F93DF93CF93CDB71C
:1056B000DEB76B970FB6F894DEBF0FBECDBFCE013D
:1056C0000F96988F8F8BE5E6F0E0FA8FE98FF8E080
:1056D000FB8FE98DFA8D0080898D9A8D01969A8FC6
:1056E000898FEF89F88D00828F89988D0196988F28
:1056F0008F8B9B8D91509B8FEB8DEE2351F70E94EA
:10570000D314CE010F960E94931780E090E0AAE791
:10571000B4E48B879C87AD87BE876B857C858D8540
:105720009E8520E030E04AEF54E40E941F02DC0135
:10573000CB018F839887A987BA876F817885898500
:105740009A8520E030E040E85FE30E9479038823F7
:105750002CF481E090E09E838D833FC06F8178853B
:1057600089859A8520E03FEF4FE757E40E941903AF
:1057700018164CF56B857C858D859E8520E030E084
:1057800040E251E40E941F02DC01CB01BC01CD01CB
:105790000E944900DC01CB019E838D830FC088EC01
:1057A00090E09C838B838B819C810197F1F79C8394
:1057B0008B838D819E8101979E838D838D819E81B8
:1057C000009769F714C06F81788589859A850E9452
:1057D0004900DC01CB019E838D838D819E819A835C
:1057E000898389819A810197F1F79A83898380E07F
:1057F0000E94331481E00E94331489E59CE20E94E8
:10580000D90D0E946B0D0E943A0D80E00E94AB0DF5
:105810000E94360981E060E00E946C2090932C0584
:1058200080932B058BE69CE260E070E044E650E05C
:1058300020E030E000E0EE24FF24CC24DD24AA2484
:10584000BB240E94632482E89DE260E070E04AEF9E
:1058500050E020E030E001E0EE24FF24CC24DD2401
:10586000AA24BB240E94632482EB9DE260E070E0E6
:105870004AEF50E020E030E002E0EE24FF24CC24A8
:10588000DD24AA24BB240E94632481EB9CE260E017
:1058900070E04AEF50E020E030E003E0EE24FF2427
:1058A000CC24DD24AA24BB240E9463240E945C260D
:1058B000FFCFDF93CF93CDB7DEB780912B059091CB
:1058C0002C0560E070E040E050E020E00E948B207A
:1058D000CF91DF9108950F931F93DF93CF9300D063
:1058E0000F92CDB7DEB79B838A83198280912B05F7
:1058F00090912C0560E070E045E050E020E00E94CF
:10590000762189838981813039F58091160599271F
:1059100087FD90958C01065010400E94CE0D9C0191
:1059200040E050E0C801880F991F880F991FFC01C3
:10593000E95EFA4F208331834283538380911605B9
:10594000882321F487E08093160502C01092160583
:10595000809116050E94AB0D8AE090E00E942726F8
:10596000C5CFDF93CF93CDB7DEB7AC970FB6F89422
:10597000DEBF0FBECDBF988F8F8BCE0101969A8F61
:10598000898FEDE6F0E0FC8FEB8FF5E0FD8FEB8D7E
:10599000FC8D00808B8D9C8D01969C8F8B8FE98D6B
:1059A000FA8D0082898D9A8D01969A8F898F9D8DAF
:1059B00091509D8FED8DEE2351F7CE0106969F8F6E
:1059C0008E8FE2E7F0E0F9A3E8A3F7E0FAA3E8A1FD
:1059D000F9A1008088A199A1019699A388A3EE8DD1
:1059E000FF8D00828E8D9F8D01969F8F8E8F9AA145
:1059F00091509AA3EAA1EE2351F7CE010D969CA3F4
:105A00008BA3E9E7F0E0FEA3EDA3F5E0FFA3EDA192
:105A1000FEA100808DA19EA101969EA38DA3EBA166
:105A2000FCA100828BA19CA101969CA38BA39FA1AA
:105A300091509FA3EFA1EE2351F7CE01429699A773
:105A400088A7EEE7F0E0FBA7EAA7F5E0FCA7EAA548
:105A5000FBA500808AA59BA501969BA78AA7E8A520
:105A6000F9A5008288A599A5019699A788A79CA564
:105A700091509CA7ECA5EE2351F781E060E00E94D5
:105A80003318CE010D960E94931781E069E00E94C1
:105A90003318CE0142960E94931782E060E00E9484
:105AA0003318CE0101960E94931782E069E00E94AC
:105AB0003318CE0106960E94931782E064E00E949C
:105AC00033188091230590912405A0912505B0916C
:105AD0002605BC01CD010E94BC1781E064E00E9454
