:100000000C942A000C9447000C9447000C94470071
:100010000C9447000C9447000C9447000C949A09E8
:100020000C9447000C9447000C9491000C946A00C7
:100030000C9447000C9447000C9447000C94470024
:100040000C9459030C9447000C9447000C944700FF
:100050000C94470011241FBECFE5D8E0DEBFCDBF12
:1000600010E0A0E6B0E0E0E5F6E202C005900D92F7
:10007000A638B107D9F715E0A6E8B0E001C01D9297
:10008000A532B107E1F70E944D120C9426130C948F
:10009000000083B7887F83BF83B7856083BF83B742
:1000A000806483BF83B7886083BF83B7806283BF68
:1000B00083B78F7E83BF089582BF08958CBF089554
:1000C0009093200580931F050895909320058093B9
:1000D0001F0508951F920F920FB60F9211242F93B0
:1000E0003F934F935F936F937F938F939F93AF93C0
:1000F000BF93EF93FF93E0911F05F09120050995C1
:10010000FF91EF91BF91AF919F918F917F916F91EF
:100110005F914F913F912F910F900FBE0F901F90C5
:1001200018951F920F920FB60F9211242F933F93A1
:100130004F935F936F937F938F939F93AF93BF93EF
:10014000EF93FF93E0911F05F09120050995FF9132
:10015000EF91BF91AF919F918F917F916F915F913F
:100160004F913F912F910F900FBE0F901F901895B8
:10017000529886E880BD87E689B9549A539A0895C3
:100180005D9BFECF8CB908955F9BFECF8CB1089527
:1001900020E004C05D9BFECFECB92F5FFC01E20FB5
:1001A000F11DE081EE23B1F70895AC0120E005C018
:1001B0005F9BFECF8CB180832F5FFA01E20FF11DB0
:1001C00080818A30A9F70895982F86B7806486BF0A
:1001D0008CE080B909980898992311F0990F92B989
:1001E00086B7846086BF089596B7906496BF880FDF
:1001F00082B986B7846086BF089586B7806286BF5D
:1002000086B7806886BF06B607FEFDCF81B190E055
:10021000887F883009F091E0892F089586B7806241
:1002200086BF86B7806886BF06B607FEFDCF81B160
:10023000887F803111F082E0089580E00895880F72
:1002400083B9189886B78F7D86BF86B7806886BFCA
:1002500006B607FEFDCF81B1887F883111F083E0BB
:10026000089580E00895880F83B9189A86B78F7D26
:1002700086BF86B7806886BF06B607FEFDCF81B110
:10028000887F803411F084E0089580E0089583B978
:1002900086B7806886BF06B607FEFDCF81B1887F2E
:1002A000883211F085E0089580E00895FC0186B75A
:1002B000806886BF06B607FEFDCF81B1887F803596
:1002C00011F086E0089583B1808380E0089586B7B9
:1002D000806186BF86B7806886BF08956D9A6B98E7
:1002E0006A9A70986F988DB18C7F8DB98DB18DB9E8
:1002F0006C9A6E9A08956D9A6B986A9A6F986C983A
:100300006E9A08958FB9779BFECF8FB108958FB7FE
:1003100080688FBF08958FB78F778FBF0895382F6C
:10032000883008F07AC0613029F1613038F06230ED
:1003300009F43CC0633009F070C053C0413059F437
:100340002AB381E090E002C0880F991F3A95E2F746
:10035000282B2ABB60C0442309F05FC02AB381E088
:1003600090E002C0880F991F3A95E2F780958223AA
:100370008ABB51C0413059F427B381E090E002C0FC
:10038000880F991F3A95E2F7282B27BB44C04423D6
:1003900009F043C027B381E090E002C0880F991FA5
:1003A0003A95E2F78095822387BB35C0413059F4F6
:1003B00024B381E090E002C0880F991F3A95E2F7DC
:1003C000282B24BB28C0442341F524B381E090E0CE
:1003D00002C0880F991F3A95E2F78095822384BB6B
:1003E0001AC0413059F421B381E090E002C0880F77
:1003F000991F3A95E2F7282B21BB0DC0442369F4DD
:1004000021B381E090E002C0880F991F3A95E2F78E
:100410008095822381BB81E0089580E00895982F24
:10042000862F81508E3F90F0913049F0913028F026
:10043000923039F0933051F406C06ABB05C067BBF7
:1004400003C064BB01C061BB81E0089580E00895F2
:10045000382F883008F07AC0613029F1613038F0E7
:10046000623009F43CC0633009F070C053C04130C1
:1004700059F42BB381E090E002C0880F991F3A95A0
:10048000E2F7282B2BBB60C0442309F05FC02BB3DD
:1004900081E090E002C0880F991F3A95E2F78095BD
:1004A00082238BBB51C0413059F428B381E090E0E6
:1004B00002C0880F991F3A95E2F7282B28BB44C049
:1004C000442309F043C028B381E090E002C0880FC4
:1004D000991F3A95E2F78095822388BB35C0413059
:1004E00059F425B381E090E002C0880F991F3A9536
:1004F000E2F7282B25BB28C0442341F525B381E032
:1005000090E002C0880F991F3A95E2F78095822308
:1005100085BB1AC0413059F422B381E090E002C09B
:10052000880F991F3A95E2F7282B22BB0DC0442370
:1005300069F422B381E090E002C0880F991F3A95D8
:10054000E2F78095822382BB81E0089580E00895E0
:10055000813051F0813030F0823041F0833049F009
:1005600080E008956BBB03C068BB01C065BB81E040
:10057000089562BB81E00895282FFA018830E8F4DD
:1005800041305105D1F0613049F0613028F06230DE
:1005900039F0633091F406C089B305C086B303C057
:1005A00083B301C080B390E002C0959587952A95EA
:1005B000E2F78170808381E0089580E00895982FAC
:1005C000853008F047C06130B9F0613030F06230FA
:1005D00011F1633009F03EC02DC08BB32FE030E045
:1005E00002C0220F331F9A95E2F7209528232BBBD8
:1005F0008BB3842B8BBB2CC088B32FE030E002C0C0
:10060000220F331F9A95E2F72095282328BB88B341
:10061000842B88BB1DC085B32FE030E002C0220FC1
:10062000331F9A95E2F72095282325BB85B3842BA9
:1006300085BB0EC082B32FE030E002C0220F331F13
:100640009A95E2F72095282322BB82B3842B82BBA4
:1006500081E0089580E008953E9A3F9886B1887FB2
:1006600086B986B1876086B93D98379A0895339ADE
:10067000089597B1907E97B997B18770892B87B904
:10068000369A349BFECF24B135B1C901089597B194
:10069000907E97B997B18770892B87B9369A08955C
:1006A00024B135B1C90108959093220580932105A5
:1006B00008951F920F920FB60F9211242F933F931C
:1006C0004F935F936F937F938F939F93AF93BF935A
:1006D000EF93FF93E0912105F09122050995FF9199
:1006E000EF91BF91AF919F918F917F916F915F91AA
:1006F0004F913F912F910F900FBE0F901F90189523
:10070000CF93DF93EC0180918600882341F48981A7
:10071000688141E00E94280281E0809386008091F8
:100720008600813039F48981688140E00E94280286
:1007300010928600DF91CF910895FC018181608144
:1007400040E00E9428020895FC018181608141E01F
:100750000E9428020895FC018181608141E00E948D
:100760008F0108950F931F93DF93CF930F92CDB70F
:10077000DEB7182F062F000F000F0065042B0E9414
:10078000FD00802F0E941F01812F0E9447010E94BF
:100790000E01802F0E943301CE0101960E94560166
:1007A0000E94670189810F90CF91DF911F910F9176
:1007B0000895EF92FF920F931F93E82E162F042FA8
:1007C000F22E110F110F10650E94FD00812F802B5A
:1007D0000E941F018E2D0E9447018F2D0E9447010C
:1007E0000E94670180E49CE90197F1F71F910F9146
:1007F000FF90EF9008951F93182F81E060E041E093
:100800000E9428021F70110F110F110F83E060E08A
:10081000412F0E94DF0282E060E041E00E94280256
:1008200080EA9FE00197F1F782E060E040E00E94FB
:1008300028021F9108951F93182F82958F700E9490
:10084000FB03812F0E94FB031F9108951F93CF93F9
:10085000DF93EC0110E003C00E941B041F5FFE0148
:10086000E10FF11D80818823B9F7DF91CF911F91AE
:1008700008951F93182F81E060E040E00E94280255
:100880001F70110F110F110F83E060E0412F0E94C4
:10089000DF0282E060E041E00E94280280EA9FE0FF
:1008A0000197F1F782E060E040E00E9428021F918A
:1008B00008951F93162F813041F4603188F488E049
:1008C0000E943904812F805809C0823049F4603178
:1008D00038F48CE00E943904812F80540E9439043E
:1008E0001F9108950F931F9386E060E041E00E94FE
:1008F0008F0185E060E041E00E948F0184E060E0CC
:1009000041E00E948F0183E060E041E00E948F019E
:1009100081E060E041E00E948F0182E060E041E020
:100920000E948F0180E69AEE0197F1F782E00E9423
:10093000390482E00E94390488E20E94390400ED03
:1009400017E0C8010197F1F780E00E9439048FE0B9
:100950000E943904C8010197F1F780E00E94390430
:1009600081E00E94390480EA9FE00197F1F780E07E
:100970000E94390486E00E9439041F910F91089566
:100980000F931F93182F81E060E041E00E9428023E
:1009900080E0612F0E94A80282E060E041E00E94B6
:1009A000280200EA1FE0C8010197F1F782E060E049
:1009B00040E00E942802C8010197F1F782E060E060
:1009C00041E00E9428021F910F910895AF92BF92BB
:1009D000CF92DF92EF92FF920F931F93DF93CF930B
:1009E000CDB7DEB72C970FB6F894DEBF0FBECDBFE4
:1009F0006B017C016115710581059105E1F110E044
:100A00005E010894A11CB11CC501810F911D9C873A
:100A10008B87C701B6012AE030E040E050E00E9439
:100A2000E512EB85FC856083C701B6012AE030E062
:100A300040E050E00E94E512C901DA016C017D013D
:100A40001F5FC114D104E104F104F1F6012F01503C
:100A5000E02EFF24E7FCF094EA0CFB1C09C0F70130
:100A60008081805D0E941B0401500894E108F10818
:100A700007FFF5CF03C080E30E94C0042C960FB699
:100A8000F894DEBF0FBECDBFCF91DF911F910F91C4
:100A9000FF90EF90DF90CF90BF90AF900895AF920E
:100AA000BF92CF92DF92EF92FF920F931F93DF934B
:100AB000CF93CDB7DEB72C970FB6F894DEBF0FBE3D
:100AC000CDBF6B017C016115710581059105E1F1D7
:100AD00010E05E010894A11CB11CC501810F911D9D
:100AE0009C878B87C701B6012AE030E040E050E0E8
:100AF0000E94E512EB85FC856083C701B6012AE000
:100B000030E040E050E00E94E512C901DA016C01DA
:100B10007D011F5FC114D104E104F104F1F6012F3E
:100B20000150E02EFF24E7FCF094EA0CFB1C09C006
:100B3000F7018081805D0E94C00401500894E108A3
:100B4000F10807FFF5CF03C080E30E94C0042C9694
:100B50000FB6F894DEBF0FBECDBFCF91DF911F91CE
:100B60000F91FF90EF90DF90CF90BF90AF900895DE
:100B70001F93CF93DF93EC0110E003C00E94C004E9
:100B80001F5FFE01E10FF11D80818823B9F7DF911E
:100B9000CF911F9108950F931F93182F81E060E06C
:100BA00040E00E94280280E0612F0E94A80282E0BB
:100BB00060E041E00E94280200EA1FE0C8010197BE
:100BC000F1F782E060E040E00E942802C80101974E
:100BD000F1F782E060E041E00E9428021F910F914E
:100BE0000895813039F4603168F4862F80580E946E
:100BF000CB050895823031F4603120F4862F805483
:100C00000E94CB0508950F931F9380E06FEF0E9421
:100C10000F0281E060E041E00E948F0182E060E02D
:100C200041E00E948F0180E69AEE0197F1F788E299
:100C30000E94CB0500ED17E0C8010197F1F78FE0A6
:100C40000E94CB05C8010197F1F781E00E94CB0516
:100C500080EA9FE00197F1F786E00E94CB051F91A3
:100C60000F910895EF92FF920F931F93FC0105805F
:100C7000F681E02DE680F7808701045F1F4FC801F1
:100C80000E94990888EB90E0B8010E943B0820E0A0
:100C9000E0918700F0918800D70156969C91868953
:100CA000981708F021E0822F1F910F91FF90EF908D
:100CB0000895FF920F931F93CF93DF9399E0F92E3E
:100CC00021C0F894E091BD00F091BE00068117812B
:100CD000C8010C960E9499087894E8012296CE01EA
:100CE0000E949908F801968980918900891710F46B
:100CF000909389009F9DC001112480579F4FBE0192
:100D00000E943B088091B8008823D9F60E94E90C24
:100D100020918A0030918B00821B930B90938D0061
:100D200080938C0089E0F82E53C0019690938F0039
:100D300080938E002150304030938D0020938C00A2
:100D4000892B09F03EC02091B4003091B50080910C
:100D5000B6009091B7009093B5008093B4003093A3
:100D6000B7002093B6002DC00580F681E02DC68126
:100D7000D78120918E0030918F008A819B81281726
:100D8000390730F1F8948E010E5F1F4FC8010E94A1
:100D900099088C899D89892B21F0CE010C960E949F
:100DA000990878949E8980918900891710F490930E
:100DB00089009F9DC001112480579F4FB8010E9458
:100DC0003B08E091B400F091B5008081882361F682
:100DD00020918C0030918D0080918E0090918F0039
:100DE0002115310509F0A1CF90938B0080938A00E3
:100DF0009091890029E006C0992319F41092890086
:100E000032C09150929FD0011124A057BF4F8C91B6
:100E1000882391F3909389001196ED91FC9112979C
:100E20000280F381E02D1296FC93EE931197CD0191
:100E30000396E817F90731F48281938112969C9307
:100E40008E9311971196ED91FC9112970680F78180
:100E5000E02DF0938800E093870020813181CF015D
:100E60006789F9010995DF91CF911F910F91FF904B
:100E700008950F931F93CF93DF93EB0100918E00A2
:100E800010918F00080F191F8091870090918800A2
:100E900002960E949908E0918700F09188001383E0
:100EA000028380918E0090918F00BF016E5F7F4F13
:100EB0000817190728F48091B6009091B70004C074
:100EC0008091B4009091B5000E946408209749F089
:100ED0006091870070918800645F7F4FCE010E940F
:100EE0006408DF91CF911F910F910895AF92BF9247
:100EF000CF92DF92EF92FF920F931F93CF93DF93E6
:100F00006C01B62EA42E8AE190E00E940008EC014C
:100F1000009711F48FEF59C080918700909188005D
:100F2000892B21F5D0938800C093870080E990E059
:100F30000E94270889E990E00E94270822EAE22E11
:100F400020E0F22EC7010E9427080BEA10E0C8013A
:100F50000E94270888EB90E00E942708F092B500D5
:100F6000E092B4001093B7000093B600EB2CBB20C6
:100F700011F0EE24E394198E188EEE8AAF8AFE01EA
:100F8000C192D1928F01CF010E943708CE010C96F9
:100F90000E943708D987C887DB8BCA8B85E090E031
:100FA0008E1991099D878C879E8980918900891768
:100FB00010F49093890089E0989FC0011124805714
:100FC0009F4FB8010E943B0881E0DF91CF911F91B4
:100FD0000F91FF90EF90DF90CF90BF90AF9008956A
:100FE00008951092C2001092C100089528EE33E0D7
:100FF0008091C1009091C200281B390BC90108954E
:101000000F931F93CF93DF938C010E94E30C809189
:10101000C1009091C2009801280F391F43E0283E7B
:10102000340758F48217930740F4EC01CD53DF4F97
:101030003093C2002093C10002C0C0E0D0E00E9403
:10104000BF0ECE01DF91CF911F910F910895FC014A
:101050009C012D5F3F4F328321838FEF9FEF94835D
:101060008383368325833087278310820895FC018C
:10107000118610860895CF93DF93AC01DB01EC015C
:1010800029813A81F9018281938113969C938E93F1
:10109000129789819A8115969C938E93149702805A
:1010A000F381E02D75836483E9017B836A83FA0110
:1010B0007283618319965C934E93189780818F5F3A
:1010C0008083DF91CF910895CF93DF939C01EB0153
:1010D000488159818FEF4F3F580721F4F901A781CB
:1010E000B08510C0D901139604C012960D90BC9122
:1010F000A02D1296ED91FC91139780819181481754
:10110000590798F71296ED91FC911397FB83EA83A8
:10111000D583C483BD83AC831396DC93CE9312979F
:1011200039872887F90180818F5F8083DF91CF9194
:101130000895CF93DF93DC011296ED91FC91139704
:1011400014968D919C911597958384831496CD91D7
:10115000DC911597FB83EA831896ED91FC91199722
:10116000818192818A179B0711F4D283C1831996DA
:101170001C921E921897808181508083DF91CF91BD
:101180000895FC0191E1908322E2229383E382930C
:1011900062937293129280E88293129282E0829319
:1011A00083E0829384E0829385E0829386E0829359
:1011B00087E0829388E0829389E0829380E1829342
:1011C000929382E1829383E1829384E1829385E129
:1011D000829386E1829387E1829388E1829389E119
:1011E000829380E2829381E28293229383E28293CC
:1011F0004293529386E2829387E2829388E28293BB
:1012000089E2829380E3829381E382933197CF01D5
:1012100008951BBC89EF8ABD8BE08EBD89B78061C4
:1012200089BFA091AB04B091AC04CD91CDBFDD914D
:10123000DEBFFF91EF91DF91CF91BF91AF919F9171
:101240008F917F916F915F914F913F912F911F915E
:101250000F91FF90EF90DF90CF90BF90AF909F9055
:101260008F907F906F905F904F903F902F901F9046
:101270000F900FBE0F90089581E0089508950F928A
:101280000FB6F8940F921F9211242F923F924F9213
:101290005F926F927F928F929F92AF92BF92CF9206
:1012A000DF92EF92FF920F931F932F933F934F93F1
:1012B0005F936F937F938F939F93AF93BF93CF93DE
:1012C000DF93EF93FF93A091AB04B091AC040DB604
:1012D0000D920EB60D920E94C70D0E94FD0CA091BA
:1012E000AB04B091AC04CD91CDBFDD91DEBFFF91D9
:1012F000EF91DF91CF91BF91AF919F918F917F91AE
:101300006F915F914F913F912F911F910F91FF909E
:10131000EF90DF90CF90BF90AF909F908F907F9095
:101320006F905F904F903F902F901F900F900FBE47
:101330000F9008950E943F0918950F920FB6F894E8
:101340000F921F9211242F923F924F925F926F92B1
:101350007F928F929F92AF92BF92CF92DF92EF9245
:10136000FF920F931F932F933F934F935F936F932E
:101370007F938F939F93AF93BF93CF93DF93EF931D
:10138000FF93A091AB04B091AC040DB60D920EB6D4
:101390000D920E94FD0CA091AB04B091AC04CD91D4
:1013A000CDBFDD91DEBFFF91EF91DF91CF91BF9176
:1013B000AF919F918F917F916F915F914F913F91ED
:1013C0002F911F910F91FF90EF90DF90CF90BF90E2
:1013D000AF909F908F907F906F905F904F903F90D5
:1013E0002F901F900F900FBE0F900895FC010FB625
:1013F000F8940F92828D0F900FBE0895FC01828D9C
:101400000895FC01828D90E0882309F491E0892FF2
:101410000895FC01928D20E0838D981709F421E056
:10142000822F08950F931F938C01FC01808191817D
:101430000E94F007C8010E94F0071F910F910895C4
:101440000F931F93CF93DF93EC01FB018A018A8DE9
:10145000882381F14881598141155105A9F08C8D6E
:101460002E813F81280F311D3F832E838A819B81EE
:101470002817390710F05F834E834C8D6E817F8172
:10148000CF0150E00E9407138A8D81508A8F8D8D85
:101490008F3F69F48885882361F0CE0108960E9409
:1014A000880D882331F081E0F801808303C08F5FCD
:1014B0008D8F81E0DF91CF911F910F910895CF9390
:1014C000DF93EC01842F4C8D4423A1F18823B1F4E8
:1014D0008C819D8150E00E9407138C8D2C813D8171
:1014E000280F311D3D832C838A819B812817390762
:1014F00008F1888199819D838C831CC08E819F8196
:1015000050E00E9407138C8D90E044275527481B1C
:10151000590B8E819F81840F951F9F838E83288115
:1015200039818217930730F48A819B81840F951F3C
:101530009F838E838A8D8F5F8A8FDF91CF910895ED
:101540000F931F93CF93DF93EC018A019A8D8B8DBC
:10155000981710F080E017C0CE01422F0E945F0A5A
:101560008E8D8F3F69F48989882361F0CE01419681
:101570000E94880D882331F081E0F801808303C048
:101580008F5F8E8F81E0DF91CF911F910F91089532
:101590000F931F93CF93DF93EC010FB6F8940F9244
:1015A0008C010F5E1F4F0DC08989882369F0C80127
:1015B0000E94880D882311F00E94840D8E8D815029
:1015C0008E8F8E8D181684F38FEF8E8F0F900FBE37
:1015D0000FB6F8940F928E01085F1F4F0DC08885DB
:1015E000882369F0C8010E94880D882311F00E94A9
:1015F000840D8D8D81508D8F8D8D181684F38FEF16
:101600008D8F0F900FBEDF91CF911F910F91089595
:101610007F928F929F92AF92BF92CF92DF92EF9282
:10162000FF920F931F93DF93CF9300D000D00F92C0
:10163000CDB7DEB78C01962E872E5D834C83722E3C
:1016400091E1C92ED12CC00ED11E20E07E0108945C
:10165000E11CF11C84E0A82EB12CAC0EBD1E01C013
:1016600021E00FB6F8940F92F801828D882309F4D7
:101670003EC0E680F7804081518141155105B1F0AF
:10168000848D9701280F311D3783268382819381B2
:101690002817390710F057834683F801448D668177
:1016A0007781892D982D50E00E940713772071F4DF
:1016B000F801828D8150828F80858823A1F0C80136
:1016C00008960E94880D813071F40BC0F801F782F2
:1016D000E6828189882339F0C6010E94880D88231B
:1016E00011F00E949D090F900FBE81E04AC08C81CD
:1016F0009D81892B19F40F900FBE42C0222319F44B
:10170000C7010E943F0D0F900FBE0E94E30C0FB661
:10171000F8940F92F801858D8F3F09F4158EF8012A
:10172000868D8F3F09F4168E0F900FBEC701B5014D
:101730000E944A0D8823F9F40FB6F8940F92F8012D
:10174000828D0F900FBE882381F46C817D81C6014C
:101750000E94A20EC8010E94C80A0E94BF0E8823E0
:1017600009F07ECF0E949D097BCFC8010E94C80A64
:101770000E94BF0E75CFC8010E94C80A0E94BF0E0A
:1017800080E00F900F900F900F900F90CF91DF910E
:101790001F910F91FF90EF90DF90CF90BF90AF908F
:1017A0009F908F907F9008957F928F929F92AF929B
:1017B000BF92CF92DF92EF92FF920F931F93DF932E
:1017C000CF9300D000D00F92CDB7DEB78C016B0164
:1017D0005D834C83722E48E0E42EF12CE80EF91E56
:1017E00020E05E010894A11CB11C34E0832E912CF2
:1017F0008C0E9D1E01C021E00FB6F8940F92F801E7
:10180000928D838D9817A8F4C801B601472D0E94C8
:101810005F0AF8018189882341F0C80141960E943E
:10182000880D813011F40E949D090F900FBE81E058
:101830004CC08C819D81892B19F40F900FBE44C040
:10184000222319F4C5010E943F0D0F900FBE0E9484
:10185000E30C0FB6F8940F92F801858D8F3F09F4D1
:10186000158EF801868D8F3F09F4168E0F900FBEEE
:10187000C501B4010E944A0D882309F50FB6F894FA
:101880000F92F801928D0F900FBEF801838D98177B
:1018900081F46C817D81C7010E94A20EC8010E9463
:1018A000C80A0E94BF0E882309F0A5CF0E949D0997
:1018B000A2CFC8010E94C80A0E94BF0E9CCFC801D7
:1018C0000E94C80A0E94BF0E80E00F900F900F90F8
:1018D0000F900F90CF91DF911F910F91FF90EF909C
:1018E000DF90CF90BF90AF909F908F907F900895A2
:1018F000AF92BF92CF92DF92EF92FF920F931F931E
:10190000CF93DF93B82EA62E882309F442C08FE12F
:1019100090E00E940008EC010097D9F1EB2CFF2425
:10192000CA2CDD24CE9C8001CF9C100DDE9C100DB6
:101930001124C80101960E9400089C0199838883A4
:10194000009721F1080F191F1B830A831A8E9D83AC
:101950008C830894E108F108EC9CC001ED9C900D8B
:10196000FC9C900D1124280F391F3F832E83BB8EC2
:10197000AC8E8FEF8D8F8E8FCE0108960E94270838
:10198000CE0141960E9427089E0105C0CE010E940B
:10199000F00720E030E0C901DF91CF911F910F9156
:1019A000FF90EF90DF90CF90BF90AF9008951F937E
:1019B000162F60E00E94780CFC01009709F0128F4E
:1019C000CF011F9108958091B1048F5F8093B1047E
:1019D00008950FB6F8940F922091AF043091B0049F
:1019E0000F900FBEC90108952091AF043091B0044B
:1019F000C90108958091B40408958091B1048823A9
:101A000051F081E08093AD0408958091B20481503B
:101A10008093B20401C099E0E091B204E99FF00123
:101A20001124E754FB4F8081882379F39091B2040D
:101A300089E0989FD0011124A754BB4F1196ED91D6
:101A4000FC9112970280F381E02D1296FC93EE93A5
:101A50001197CD010396E817F90731F4828193813C
:101A600012969C938E9311971196ED91FC9112977B
:101A7000868197819093AC048093AB040895FC0118
:101A80008091AE0480838091AF049091B0049283E2
:101A900081830895FC01DB010FB6F8940F929091B9
:101AA000AE048081981749F02091AF043091B004C2
:101AB000818192812817390718F58091AF049091A0
:101AC000B004218132814D915C911197821B930B5F
:101AD00084179507A8F48091AF049091B004281B57
:101AE000390B240F351F2D933C938091AE048083D6
:101AF0008091AF049091B0049283818380E001C013
:101B000081E00F900FBE089581E08093AD040895A9
:101B10000F931F93CF93DF93FC010580F681E02D97
:101B200006811781E8012C96CE010E9499088091C8
:101B3000B1048823A9F4E8012296CE010E949908F5
:101B4000D80156969C918091B204891710F4909315
:101B5000B20489E0989FC001112487549B4F02C0B2
:101B60008CEF94E0BE010E943B08E091AB04F09141
:101B7000AC0420E0D80156969C918689981708F00D
:101B800021E0822FDF91CF911F910F910895FF9255
:101B90000F931F93CF93DF938091B104882309F0B3
:101BA0008FC08091AF049091B00401969093B004DF
:101BB0008093AF048091AF049091B004892B79F5A4
:101BC0002091F8043091F9048091FA049091FB047B
:101BD0009093F9048093F8043093FB042093FA0463
:101BE0008091AE048F5F8093AE04E091F804F09191
:101BF000F9048081882319F48FEF9FEF0CC0E091E6
:101C0000F804F091F9040580F681E02D0680F78153
:101C1000E02D8281938190938400809383002091B2
:101C2000AF043091B0048091830090918400281714
:101C3000390708F44AC089E0F82EE091F804F091E1
:101C4000F9048081882339F48FEF9FEF909384000B
:101C5000809383003AC0E091F804F091F904058084
:101C6000F681E02DC681D7812A813B818091AF0426
:101C70009091B0048217930728F430938400209346
:101C8000830023C08E010E5F1F4FC8010E94990878
:101C90008C899D89892B21F0CE010C960E94990890
:101CA0009E898091B204891710F49093B2049F9D8D
:101CB000C001112487549B4FB8010E943B08BDCF3F
:101CC0008091B3048F5F8093B304DF91CF911F9114
:101CD0000F91FF900895CF93DF93EC01E091AB0457
:101CE000F091AC04938382838091AF049091B0040F
:101CF000C817D90768F48091FA049091FB046091A9
:101D0000AB047091AC046E5F7F4F0E94640817C0F3
:101D10008091F8049091F9046091AB047091AC0447
:101D20006E5F7F4F0E9464088091830090918400D1
:101D3000C817D90720F4D0938400C0938300DF91A3
:101D4000CF9108950F931F938B016091AB04709115
:101D5000AC04645F7F4F0E9464088091AB04909153
:101D6000AC0402960E9499088091AF049091B0044F
:101D7000800F911F0E946B0E1F910F910895CF92BB
:101D8000DF92FF920F931F93DF93CF930F92CDB704
:101D9000DEB70FB6F8940F928091B1048150809312
:101DA000B1048091B104882309F058C08091B40433
:101DB000882309F453C0198299E0F92E2DC0E091CF
:101DC0000105F0910205C680D780C6010C960E94DD
:101DD000990886010E5F1F4FC8010E949908D6011D
:101DE00056969C918091B204891710F49093B20496
:101DF0009F9DC001112487549B4FB8010E943B084E
:101E0000E091AB04F091AC04D60156969C91868982
:101E1000981710F0B1E0B9838091FC04882379F61B
:101E20008091B304882341F40CC00E94C70D8091B7
:101E3000B30481508093B3048091B3048823A9F73D
:101E400007C0E981E13021F08091AD04813031F4A7
:101E50001092AD040E949D0981E001C080E00F90C6
:101E60000FBE0F90CF91DF911F910F91FF90DF90E8
:101E7000CF9008950F931F93CF93DF93EC010097BA
:101E8000C9F08091B1048F5F8093B1040091AF04D9
:101E90001091B0048091AB049091AC0402960E9422
:101EA0009908CE01800F911F0E946B0E0E94BF0EF9
:101EB000882311F40E949D09DF91CF911F910F910A
:101EC0000895CF93DF93FC01EB018091B1048F5F04
:101ED0008093B10420813181C20FD31F8091AF0460
:101EE0009091B0048217930728F4C217D30728F003
:101EF00020E00CC0C217D30740F08091AF0490914E
:101F0000B00420E08C179D0708F421E0D183C08342
:101F1000222351F08091AB049091AC0402960E9470
:101F20009908CE010E946B0E0E94BF0E882311F407
:101F30000E949D09DF91CF910895EF92FF920F9338
:101F40001F93CF93DF938C010FB6F8940F9280917B
:101F5000AB049091AC040817190719F400E010E0E5
:101F600003C00115110529F4C091AB04D091AC0454
:101F700001C0E80122E0E22EF12CEC0EFD1EC701AB
:101F80000E9499088C899D89892B21F0CE010C969D
:101F90000E94990885E095E0B7010E943B08809176
:101FA000B6048F5F8093B6048091B7048F5F8093EF
:101FB000B7040F900FBE8091B504882321F0012B48
:101FC00011F40E949D09DF91CF911F910F91FF9015
:101FD000EF900895F8941092B5040E943E09089578
:101FE0000F931F938091B6048823E1F38091B1048D
:101FF0008F5F8093B104109105050E94BF0E1123DD
:1020000089F30FB6F8940F92E0910A05F0910B0551
:1020100006811781C80102960E9499088091B40434
:1020200081508093B4048091B60481508093B604AB
:102030000F900FBEF8018789908D0E94F007C801AC
:102040000E94F007CFCF2F923F924F925F927F92E4
:102050008F929F92AF92BF92CF92DF92EF92FF92B8
:102060000F931F93CF93DF931C014B015A0129015A
:10207000702EE60181E290E00E9400086C0100975A
:1020800071F0209721F4C5010E940008EC01F601CF
:10209000D08FC78B209729F4C6010E94F0078FEFDD
:1020A000BFC0CE0165EA70E0A5010E94101308943C
:1020B000A108B108F601C789D08DCA0DDB1DC60184
:1020C0004996B40148E050E00E941713F60110A2AF
:1020D000072DF4E0F71508F404E0F601068B42E062
:1020E000A42EB12CAC0CBD1CC5010E943708C60142
:1020F0000C960E943708F601D186C08685E090E0F4
:10210000801B910995878487D38AC28ACE01B10149
:10211000A2010E94C108F60191838083E114F104B9
:1021200019F0F701D182C0820FB6F8940F92809116
:10213000B4048F5F8093B4048091AB049091AC049D
:10214000892B79F5D092AC04C092AB048091B40491
:102150008130B1F5C9EBD4E0CE010E942708299661
:10216000F4E0C63EDF07C1F736EEE32E34E0F32E8F
:10217000C7010E9427080FEE14E0C8010E9427083B
:102180008CEF94E00E94270885E095E00E942708E4
:10219000F092F904E092F8041093FB040093FA041F
:1021A0000FC08091B504882359F4E091AB04F091FD
:1021B000AC048689781620F0D092AC04C092AB04AF
:1021C000F60196898091B804891710F49093B804A9
:1021D0008091B7048F5F8093B704F6019689809150
:1021E000B204891710F49093B204F601868929E0AD
:1021F000829FC001112487549B4FB5010E943B0868
:102200000F900FBE8091B504882349F0E091AB0494
:10221000F091AC048689871510F40E949D0981E035
:10222000DF91CF911F910F91FF90EF90DF90CF90B2
:10223000BF90AF909F908F907F905F904F903F9016
:102240002F900895AF92BF92CF92DF92EF92FF92BC
:102250000F9380EF9FE060E670E045E550E020E0FE
:1022600030E000E0EE24FF24CC24DD24AA24BB24AB
:102270000E942310813049F4F8948093B5041092A1
:10228000B0041092AF040E9409090F91FF90EF90E3
:10229000DF90CF90BF90AF9008956091130570913B
:1022A0001405809115059091160528E833E140E06A
:1022B00050E00E94C6122AE096958795779567951B
:1022C0002A95D1F72AE030E040E050E00E94E51284
:1022D00020931B0530931C0540931D0550931E054C
:1022E0008BE090E00E943A0FD8CF60910F0570917B
:1022F0001005809111059091120520E137E240E030
:1023000050E00E94C6122FEF33E040E050E00E9400
:10231000E512209317053093180540931905509343
:102320001A058BE090E00E943A0FDFCFDF93CF9346
:10233000CDB7DEB766970FB6F894DEBF0FBECDBF40
:10234000DE011196E5E6F0E085E001900D92815006
:10235000E1F7DE015096EAE6F0E087E001900D92A9
:102360008150E1F7DE011696E1E7F0E085E00190AB
:102370000D928150E1F7DE011B96E6E7F0E085E083
:1023800001900D928150E1F781E060E00E945904D4
:10239000CE0106960E94260481E069E00E9459045D
:1023A000CE010B960E94260482E060E00E94590450
:1023B000CE0101960E94260482E069E00E94590441
:1023C000CE0140960E94260482E064E00E945904F7
:1023D00060911B0570911C0580911D0590911E0553
:1023E0000E94E60481E064E00E94590460911705B0
:1023F000709118058091190590911A050E94E604C4
:1024000084E690E00E943A0FDFCF1F9317E080919F
:1024100023059091240560E070E045E050E020E065
:102420000E94080B813041F580910E05882319F038
:10243000873011F510C00E945003A0E0B0E08093F7
:102440000F0590931005A0931105B09312051093FA
:102450000E0587E00FC00E945003A0E0B0E080931B
:10246000130590931405A0931505B09316051092CB
:102470000E0580E00E9447038AE090E00E943A0F38
:10248000C6CF809123059091240560E070E040E084
:1024900050E020E00E94D40B0895AF92BF92CF92FB
:1024A000DF92EF92FF920F93DF93CF93CDB7DEB71A
:1024B00028970FB6F894DEBF0FBECDBFDE01119690
:1024C000EBE7F0E088E001900D928150E1F70E9487
:1024D0007204CE0101960E94260480E197E228EC66
:1024E00030E0F9013197F1F70197D9F780E00E94C8
:1024F000390481E00E94390481E492E10E9454038E
:102500000E9437030E942C0380E00E9447030E9430
:10251000870181E060E00E94D70C909324058093AE
:10252000230585E092E160E070E044E650E020E0C1
:1025300030E000E0EE24FF24CC24DD24AA24BB24D8
:102540000E94231085E791E160E070E04AEF50E0DF
:1025500020E030E001E00E9423108DE491E160E092
:1025600070E04AEF50E020E030E002E00E942310EB
:1025700086E991E160E070E04AEF50E020E030E071
:1025800003E00E9423100E942211FFCF629FD0011E
:10259000739FF001829FE00DF11D649FE00DF11D1E
:1025A000929FF00D839FF00D749FF00D659FF00DCD
:1025B0009927729FB00DE11DF91F639FB00DE11DBA
:1025C000F91FBD01CF0111240895A1E21A2EAA1B03
:1025D000BB1BFD010DC0AA1FBB1FEE1FFF1FA217D3
:1025E000B307E407F50720F0A21BB30BE40BF50BD0
:1025F000661F771F881F991F1A9469F76095709559
:10260000809590959B01AC01BD01CF010895FB0120
:10261000DC0102C001900D9241505040D8F708955E
:10262000DC0101C06D9341505040E0F70895FB017B
:10263000DC014150504048F001900D920020C9F754
:1026400001C01D9241505040E0F70895F894FFCF2B
:1026500049444C450074656D3D006465677265656D
:10266000005265733D005F2D2D5F0057656C636FF1
:062670006D6500FFFF0094
:00000001FF
